:020000040800F2
:10000000FFFF002061150008A9150008A9150008C8
:10001000A9150008A9150008A9150008000000008E
:10002000000000000000000000000000A91500080A
:10003000A915000800000000A9150008A91500086E
:10004000A9150008A9150008A9150008A915000898
:10005000A9150008A9150008A9150008A915000888
:10006000A9150008A9150008A9150008A915000878
:10007000A9150008A9150008A9150008A915000868
:100080000D090008A9150008A9150008A915000800
:10009000A9150008A9150008A9150008A915000848
:1000A000A9150008A9150008A9150008A915000838
:1000B000D5040008A9150008A9150008A91500080D
:1000C000A9150008A9150008A9150008A915000818
:1000D000A915000835100008A9150008A915000881
:1000E000A9150008A9150008A9150008A9150008F8
:1000F000A9150008A9150008A91500085509000848
:10010000A9150008A9150008A91500089D090008EF
:10011000A9150008A9150008A9150008A9150008C7
:10012000A9150008A9150008A9150008A9150008B7
:10013000A9150008A9150008A9150008A9150008A7
:10014000A9150008A9150008A9150008A915000897
:10015000A9150008A9150008A9150008A915000887
:10016000A9150008A9150008A9150008A915000877
:10017000A9150008A9150008A9150008A915000867
:08018000A9150008A9150008EB
:1001880010B5054C237833B9044B13B10448AFF3C9
:1001980000800123237010BD4804002000000000E7
:1001A80080180008084B10B51BB108490848AFF380
:1001B80000800848036803B910BD074B002BFBD02B
:1001C800BDE81040184700BF000000004C040020A4
:1001D800801800084404002000000000154B002B84
:1001E80008BF134B9D46A3F5803A00218B460F4666
:1001F8001348144A121A01F00DFA0F4B002B00D0C5
:1002080098470E4B002B00D098470020002104008F
:100218000D000D48002802D00C4801F0BFFA01F08B
:10022800D1F92000290001F061F801F0BBF900BF05
:1002380000000800000000000000000000000000AE
:1002480048040020B0100020A5170008B1170008C6
:10025800014B01221A7070476404002010B584B065
:1002680000F0FCFB7F4B804A1B88ADF8043000236C
:1002780002938DF80C305369012443F01003536145
:100288000D2102AA23464A208DF8084000F02EFCD2
:1002980018B9764A1368234413609924012302AAE3
:1002A80000214A208DF8084000F020FC18B96F4A58
:1002B8001368013313608024012302AA47214A20CE
:1002C8008DF8084000F012FC18B9684A1368013329
:1002D800136001AA012332214A2000F047FC18B913
:1002E800624A5368013353609DF80440012364F067
:1002F8007F0402AA32214A208DF8084000F0F6FB5C
:1003080018B95A4A13680133136001AA012332212C
:100318004A2000F02BFC18B9544A53680133536043
:100328009DF80440012304F07F0402AA32214A20E8
:100338008DF8084000F0DAFB18B94C4A136801330D
:10034800136000242146012302AA4A208DF80840A0
:1003580000F0CCFB18B9454A136801331360AF2489
:10036800012302AA04214A208DF8094000F0BEFBAF
:1003780018B93E4A1368013313607024012302AA96
:100388000D214A208DF8084000F0B0FB18B9374A13
:100398001368013313608124012302AA05214A202E
:1003A8008DF8084000F0A2FB18B9304A13680133F1
:1003B80013600724012302AA06214A208DF8084069
:1003C80000F094FB18B9294A13680133136000241C
:1003D800012302AA0A214A208DF8084000F086FB72
:1003E80018B9224A1368013313600024012302AAB2
:1003F80027214A208DF8084000F078FB18B91B4ADD
:100408001368013313600A24022302AA9A214A209E
:100418008DF808408DF8094000F068FB18B9134AB8
:100428001368013313600F24012302AA1F214A20F5
:100438008DF8084000F05AFB18B90C4A13680133CC
:1004480013609E2402AA012302214A208DF8084045
:1004580000F04CFB18B9054A13680133136004B067
:1004680010BD00BF9C180008000C0240841000203A
:100478000D490A6C4FF0804342F001024FF47A5064
:100488000A6418859A8992B242F0010230219A8151
:10049800D9621A8892B242F0810201211A801C2086
:1004A800998200F063BC00BF00380240014B186815
:1004B800704700BF8C100020034A1368C01802D090
:1004C80013688342FCD370478C10002008B5FFF7EF
:1004D800BFFE4FF0804300221A8208BD294B2A48EC
:1004E8001A68002142F001021A6099601A6822F025
:1004F800847222F480321A6058601A6822F48022CA
:100508001A60D9601A6842F480321A601A68920335
:1005180007D41A464FF4A0631168880301D4013B3D
:10052800FAD1184B194A5A601A6C194942F080528C
:100538001A640A6822F480420A609A689A609A6883
:100548009A609A6842F480529A601A6842F08072FF
:100558001A601A4611680B4B8901FBD50D4A40F207
:10056800027111609A6822F003029A609A6842F058
:1005780002029A601A46936803F00C03082BFAD11A
:10058800704700BF0038024010300024085441076B
:1005980000700040003C0240034AD2F8883043F41F
:1005A8007003C2F88830704700ED00E0074A084938
:1005B800936823F400039360C2F88410136843F02F
:1005C8008063136013681B01FCD570470038024034
:1005D80080400030F0B5DFF868E0184CDEF830C035
:1005E80054F820709DF814609DF8185004EB8004AE
:1005F8004CEA07076069CEF8307003244F00D0F842
:1006080000E0BC40E4430EEA040EBA404EEA02029F
:10061800026042684FF0010E0EFA01FE8B4022EA9A
:100628000E02134343608368BE4023401E43866026
:10063800C368BD401C402C43C460F0BDA01800082E
:100648000038024070B40F4B0F4D53F820402E6B0A
:1006580003EB80033443072958692C630DD8036AD8
:1006680000F1200489000F20884002FA01F123EAF2
:1006780000021143216070BC7047083900F124045E
:10068800436AEFE7A018000800380240044B03EB68
:1006980080008A40406943691A434261704700BF3D
:1006A800A0180008064B03EB800001234269126979
:1006B80003FA01F1114214BF18460020704700BF29
:1006C800A01800080549064A0B6B43F008030B63A2
:1006D800136843F0AA431360704700BF0038024014
:1006E800000C024030B40F4C656925F47045656113
:1006F80018B1606940F48050606121B109484169CE
:1007080041F40051416122B106494A6942F48042EC
:100718004A6123B1034A536943F40043536130BC2F
:10072800704700BF000C0240024A536923F470432B
:1007380053617047000C024070B582B00024022556
:100748002C4E019523460095012204210320347084
:100758007460B460F46034617461FFF73BFF264B4A
:100768006FF010025A612846234601942A460095E4
:100778000721FFF72FFF019423462A4628460095B4
:100788000A21FFF727FF019423462A4628460095A9
:100798000C21FFF71FFF234601942A4620460095A7
:1007A8000421FFF717FF204606220421FFF74AFF1E
:1007B800284606220721FFF745FF284606220A2178
:1007C800FFF740FF284606220C21FFF73BFF0B49A5
:1007D8000B4A0B6C40F6086443F400434FF408706E
:1007E8000B649483108493889BB243F080039380B6
:1007F80002B070BD90100020000C0240003802408A
:10080800003C0040214B70B5214C224D00265E6013
:100818001E60236823F0010323602B6823F0010383
:1008280086B02B602368DB07FCD41A4C236813F0CE
:100838000103FBD1C0B1B9B10D4617490091044677
:1008480069460520154E0192059302960394049576
:1008580000F042FA6946072000F03EFA102000F046
:1008680085FA2F2000F082FA0D4809498388094A41
:100878009BB243F0020383800B6843F001030B60D3
:10088800136843F00103136006B070BD00600240B6
:1008980088600240B8600240542D02000C3C0040C1
:1008A800003C0040094B0A4A00215960196013684E
:1008B80023F00103136013680549DB07FBD4486084
:1008C8000B6843F001030B60704700BF00600240F3
:1008D80088600240094B0A4A002159601960136870
:1008E80023F00103136013680549DB07FBD4486054
:1008F8000B6843F001030B60704700BF00600240C3
:10090800B86002400F4B5A680F4B100502F464613F
:1009180002D5586801305860900502D598680130B2
:100928009860500502D5D8680130D860520602D5C3
:100938001A6901321A61034AD1605A6901325A614F
:10094800704700BF00600240901000200F4B5A68AB
:100958000F4B100102F0646102D5586801305860ED
:10096800900102D5986801309860500102D5D86886
:100978000130D860520202D51A6901321A61034A5D
:10098800D1605A6901325A61704700BF0060024065
:1009980090100020094B1A783AB1094A00211970C1
:1009A800536923F010035361704706494A690120CF
:1009B80042F010024A611870704700BF9010002082
:1009C800000C024000000240214A224B70B500266C
:1009D8001E70136C204C43F40013136423886FEAD1
:1009E800434382B06FEA534302259BB223802A46D1
:1009F80033460195009506210120FFF7EBFD3346AC
:100A08002A460195009509210120FFF7E3FD0422FC
:100A180006210120FFF716FE042209210120FFF715
:100A280011FE112323842388C3F30E032380238814
:100A38009BB243F4806343F0010348F2080010219D
:100A48004FF480422380A083A180228102B070BD30
:100A580000380240A810002000540040204A214BD2
:100A680070B500261E70136C1F4C43F400131364FA
:100A780023886FEA43436FEA534382B002259AB250
:100A88000123228018462A468DE860000621FFF7D8
:100A9800A1FD012318462A468DE860000921FFF7C9
:100AA80099FD042206210120FFF7CCFD042209212B
:100AB8000120FFF7C7FD112323842388C3F30E0306
:100AC800238023889BB243F0010348F28000102161
:100AD80044F24A022380A083A180228102B070BD23
:100AE80000380240A810002000540040002A37D0E7
:100AF800F0B41C4F3C78002C2FD11B4E0124358BB1
:100B08003C703488A4B244F480743480B58A164C9E
:100B1800ED07FBD5400020822546AE8A124CB0076F
:100B2800FBD589B2208B2182A18A0F4D0906FBD5FE
:100B380023B113782B82AB8A1A06FCD50A498B8A13
:100B4800094A5B07FBD513889BB243F40073002165
:100B5800138001203970F0BC70470020F0BC70474A
:100B680010467047A810002000540040002A00F0EA
:100B78009680F0B54B4C2578002D40F08E804A4D7C
:100B880002262F8B26702E88B6B246F480762E80E9
:100B9800AE46BEF81460444DF707FAD54700B8B220
:100BA80028822846868A404DB607FBD589B2288B0D
:100BB80029824AF2010101E001396ED0A88A3A4E31
:100BC8000006F9D5318889B241F480713180B08A44
:100BD8003549C007FBD547F001070F82888A860789
:100BE800FCD5002B49D03048032B06460ED9018B83
:100BF800818A4D07FCD5013BDBB2318A1170032B8A
:100C080002F101051AD0032B2A46F0D8154615D053
:100C1800012BF8D124490B8823F480631B041B0C97
:100C28000B800B8B0B889BB243F400730B808B8A71
:100C38001D485B06FBD5038A13701EE01A498A8A91
:100C4800194B5007FBD51A8822F480621204120C43
:100C58001A801A8A2A701A46918A134B4906FBD5BC
:100C68001A8A6A701A8892B242F400721A809A8AB2
:100C78000D495206FBD50B8AAB700B490B880A4A03
:100C880003F400739BB2002BF8D1118889B241F4A8
:100C98008061118001202370F0BD0020F0BD00208C
:100CA800704700BFA810002000540040054A938AEE
:100CB800128B9BB243EA024330EA03030CBF0120C4
:100CC8000020704700540040024A136B43F400139D
:100CD800136370470038024001380C4B53F820303A
:100CE80000221A608A689A604A685A600A681A601C
:100CF8001A6822F400221A60CA68DA601A6842F494
:100D080000221A600A691A61704700BFC8180008F3
:100D180030B583B000248DF805408DF806408DF875
:100D28000740FFF751FE9DF806309DF80550214613
:100D38000DF1050263F01F0445F01C0501231E2078
:100D48008DF805508DF80640FFF7D0FE01231946AF
:100D58000DF106021E20FFF7C9FE01230DF107025F
:100D680002211E20FFF7C2FE03B030BD0028034653
:100D7800B8BF00F11F035B11A0EB43100122034928
:100D880002FA00F041F82300704700BF00E100E0DC
:100D980000280346B8BF00F11F035B11A0EB431006
:100DA80001222033024902FA00F041F8230070477B
:100DB80000E100E0102817D80B0615D4130613D449
:100DC80010B500F00F0382B00C4663F06F0301A862
:100DD80003218DF804308DF805408DF8062000F0C9
:100DE80017F9012002B010BD00207047102817D84D
:100DF8000B0615D4130613D410B500F00F0382B0F8
:100E08000C4663F07F0301A803218DF804308DF8A8
:100E180005408DF8062000F0FBF8012002B010BD57
:100E280000207047102817D80B0615D4130613D4C2
:100E380010B500F00F0382B00C4663F05F0301A801
:100E480003218DF804308DF805408DF8062000F058
:100E5800DFF8012002B010BD00207047102817D815
:100E68000B0615D4130613D410B500F00F0382B087
:100E78000C4663F04F0301A803218DF804308DF868
:100E880005408DF8062000F0C3F8012002B010BD1F
:100E980000207047102814D80B0612D400B500F0B3
:100EA8000F0383B00A4663F03F0301A802218DF8BF
:100EB80004308DF8052000F0ABF8012003B05DF890
:100EC80004FB0020704700BF102814D80B0612D46A
:100ED80000B500F00F0383B00A4663F02F0301A8A2
:100EE80002218DF804308DF8052000F091F80120DA
:100EF80003B05DF804FB0020704700BF102817D826
:100F08000B0615D4130613D410B500F00F0382B0E6
:100F18000C4663F01F0301A803218DF804308DF8F7
:100F280005408DF8062000F073F8012002B010BDCE
:100F380000207047304A314B2DE9F04100241460FD
:100F48001A6B2F4D42F003021A635A6C42F01002DA
:100F58005A641A6C42F4003282B01A64804607223E
:100F680020460221FFF76EFB0722012007460226D2
:100F78001146FFF767FB234601973846009632462D
:100F88003146FFF727FB8DE8C00032463846234636
:100F98000721FFF71FFB1B4B1B491C4E2C824FEAF6
:100FA8008802B1FBF2F2A3FB02177F09642107FB59
:100FB800112212013232A3FB0223C3F3431343EA83
:100FC80007139BB22421082234822520A981B281EB
:100FD800AC82B4822B813381FFF7C8FEAB899BB208
:100FE80043F40053AB81B3899BB243F40053B381FC
:100FF80002B0BDE8F08100BFAC100020003802400C
:10100800001001401F85EB510084D71700440040B1
:1010180049B1054A014410F8013B938013885B06E7
:10102800FCD58842F7D170470044004010B5094C00
:1010380023889B060DD5A0880023C0B29847238833
:10104800054A23F020031B041B0C2380136801337B
:10105800136010BD00100140AC1000204049414B06
:10106800D1F88820404842F47002C1F888201A68F4
:10107800002142F001021A6099601A6822F0847215
:1010880022F480321A6058601A6882B022F48022F2
:101098001A60D960009101911A6842F480321A608E
:1010A8001A4603E0009BB3F5A06F09D0136803F458
:1010B80000330193009B01330093019B002BF1D077
:1010C800284B1B6813F4003318BF01230193019BBD
:1010D800012B40D0234A2549136C43F080531364F5
:1010E8000B6823F480430B60936893609368936064
:1010F800936843F480539360136843F080731360DC
:101108001168184B8901FBD5194A40F20271116028
:101118009A6822F003029A609A6842F002029A6082
:1011280019468B680F4A03F00C03082BF9D1936812
:10113800104923F400039360C2F88410136843F045
:101148008063136013681B01FCD5054B4FF00062E8
:101158009A6002B07047034B074A5A60BAE700BF6B
:1011680000ED00E00038024010300024007000401C
:10117800003C02408040003008544107184883680A
:1011880003F00C03042B28D0082B09D0154B144A64
:1011980015499268C2F303128A5CD3400B61704709
:1011A8004368416813F4800F436818BF0F4801F083
:1011B8003F020CBF0B49B0FBF2F1C3F3881308BF21
:1011C800B1FBF2F101FB03F2054B5B68C3F301438A
:1011D80001335B00B2FBF3F3D9E7044BD7E700BF59
:1011E800003802400024F4000400002000127A00B5
:1011F800081D0008000000204404002048040020C6
:10120800B010002006EE900A9FED337AF5EEC06A22
:1012180026EE877AF1EE10FAFDEEC77A56D4F8EE8C
:10122800E77ADFED2E6A77EE677AB6EE004A67EE68
:10123800A67A9FED2B6ABCEEE77A2A4AF8EEC76ACF
:1012480017EE103A77EEE67ADFED276A27EEA77AEF
:1012580067EE844A27EE044A67EEA66AF0EE445A1F
:1012680047EEC65AB3F5807FA8BF4FF48073B0EE3F
:10127800656A64EE875A26EE875A74EE277A23EA5F
:10128800E373B7EE004A02EB830335EEC77A74EED8
:10129800644A36EE456A93ED002A75EE666AD3ED28
:1012A800032A37EE247A93ED013A77EEE55AD3ED27
:1012B800023A26EE026A66EEA26A07EE036A45EE75
:1012C800A36A76EE266A16EE900A704717EE903AF1
:1012D800013B07EE903AA2E783F9223E00008043E3
:1012E800ABAAAA3EE4180008ABAA2A3E2DE9F04FA3
:1012F8002DED028B934C9FED948ADFF85482DFF832
:10130800549285B000256570FFF746F9FFF7E6F8B7
:10131800FFF74CF9FFF7D6F9FFF70EFAFEF79EFF35
:10132800FFF7D2FCFFF7F4FC47F61220FFF702FEA6
:10133800FFF79EF82146002301F8105B4FF4007276
:1013480004F5826065602573A360FFF75BFA94F883
:101358001038227B9A4204F6140504F6180627462C
:1013680000F0898007EE903AF8EE677A184688EE22
:10137800277AC5ED007A86ED007AC3B3DFF8CCA1F1
:101388004FF0000BF3EE0E8AA068FFF73BFF94F8CE
:101398001C3C94ED027AD6ED006A07EE903AF8EE1E
:1013A800E77A37EE267A67EEA87A06EE900A67EEB5
:1013B800A67AB4EEC87AFCEEE77AF1EE10FA17EEE8
:1013C800903AD5ED007A2AF8023FFCEEE77AC8BFDA
:1013D80037EE487ACDED017ABDF8040087ED027A40
:1013E8000BF1010B5845CFDC564B93F8103823739B
:1013F8006378002B0CBF01230023637044D0D8F816
:101408000430012BFBD8FFF765FAD5ED007AFCEE26
:10141800E77ACDED017ABDF8040070B14B4B00F1CD
:1014280000409A1C013802EB4000A3F60C0233F886
:10143800021F22F8021F8342F9D12378012B45D0DD
:1014480094F810383F2B67D9A3F140023F2A6AD994
:1014580083F080033F2B6DD901231A46194618469D
:10146800FFF740F96368227B0133636094F8103812
:101478009A427FF477AFD5ED007AFCEEE77ACDEDAE
:10148800017ABDF80400B3E7D9F80430012BFBD882
:10149800FFF708FAD5ED007AFCEEE77ACDED017A90
:1014A800BDF804000028C8D0284B00F100409A1C61
:1014B800013802EB4000A3F20C4233F8021F22F875
:1014C800021F9842F9D12378012BB9D14FF0020EAF
:1014D800062302AA03211E2087F800E0FFF746FB37
:1014E8009DF809209DF80B3087F81028802A87F886
:1014F8001C3C01D8110602D4803A87F81028802BAA
:1015080001D81A0602D4803B84F81C3C00232370BF
:1015180094F810383F2B97D800231A461946012013
:10152800FFF7E0F89EE7002301211A460846FFF777
:10153800D9F897E70122114610460023FFF7D2F8A1
:1015480090E700BF64040020DB0FC9407E0C002038
:10155800B860024088600240002103E00B4B5B58F2
:10156800435004310A480B4B42189A42F6D30A4AB0
:1015780002E0002342F8043B084B9A42F9D3FFF7F4
:101588006DFD00F01FF8FFF7B1FE7047081D000859
:10159800000000204404002048040020B01000206F
:1015A800FEE7000008B50021044600F08BF8044B64
:1015B8001868C36B03B19847204600F05BF900BF79
:1015C800F01C000870B50F4E0F4D761BB61018BFF3
:1015D800002405D0013455F8043B9847A642F9D1B8
:1015E8000A4E0B4D761B00F049F9B61018BF0024BF
:1015F80006D0013455F8043B9847A642F9D170BD8E
:1016080070BD00BFFC1C0008FC1C0008041D00087D
:10161800FC1C000870B4840746D0541E002A41D030
:10162800CDB2034602E0621EE4B3144603F8015B40
:101638009A07F8D1032C2ED9CDB245EA05250F2CEF
:1016480045EA054519D903F110022646103E0F2E2A
:1016580042F8105C42F80C5C42F8085C42F8045C02
:1016680002F11002F2D8A4F1100222F00F0204F0E5
:101678000F041032032C13440DD91E462246043A97
:10168800032A46F8045BFAD8221F22F00302043228
:10169800134404F003042CB1C9B21C4403F8011B21
:1016A800A342FBD170BC704714460346C2E700BF93
:1016B800024B13B1024800F071B8704700000000F7
:1016C800B11700082DE9F04F324B85B01B68029323
:1016D80003F5A47301900E460393029BD3F8487157
:1016E8003FB3DDF80CA04FF00109D3467C68651EB6
:1016F8000ED4013407EB84044FF00008E6B1D4F8A7
:1017080000319E4218D0013D6B1CA4F10404F5D1B0
:10171800214B73B17B68002B36D13B68002B34D04A
:101728003846CBF80030AFF30080DBF80070002FAC
:10173800DCD105B0BDE8F08F7B682268013BAB4285
:101748000CBF7D60C4F80080002ADCD0D7F888116F
:10175800D7F804A009FA05F30B420FD0D7F88C117B
:101768000B420DD1D4F88010019890477B685345FF
:10177800B3D1DBF80030BB42C5D0AEE79047F5E700
:10178800D4F880009047F1E73B68BB461F46002F1E
:10179800ACD1CEE7F01C0008000000000023014691
:1017A8001A46184600F014B838B5074D074C2C1BDC
:1017B800A41005D0013C55F8043D9847002CF9D1F8
:1017C800BDE8384000F060B8081D0008041D000896
:1017D8002DE9F047254C2568D5F848410646884646
:1017E80092469946C4B360681F2817DC431C76B13B
:1017F80004EB80050122C5F888A0D4F8881182403E
:101808001143022EC4F88811C5F808911ED0023081
:10181800636044F820800020BDE8F087144B03B3D0
:101828004FF4C870AFF300800446D0B1D5F8483102
:10183800002780E88800C5F8484138460123C4F8E5
:101848008871C4F88C71002EE1D0D1E7D4F88C11DE
:101858000A43C4F88C21DAE705F5A674C5F84841AF
:10186800C1E74FF0FF30BDE8F08700BFF01C00086B
:1018780000000000FEE700BF00000000F8B500BF50
:10188800F8BC08BC9E467047F8B500BFF8BC08BC59
:041898009E467047B1
:10189C00FFFF000001000000020000000400000037
:1018AC00080000001000000000000240000402408C
:1018BC0000080240000C0240001002402860024068
:1018CC0040600240586002407060024088600240F4
:1018DC00A0600240B8600240B00AC9BC0000000021
:1018EC00B00AC93C30FB483D05A9963D36BDC83D04
:1018FC0073B2FA3D8340163EA2102F3EC2C5473E3E
:10190C00135C603ECCCF783E938E883E31A0943EE3
:10191C00E59AA03ED47CAC3E2A44B83E15EFC33EBB
:10192C00CA7BCF3E80E8DA3E7533E63EEA5AF13E9A
:10193C00275DFC3E3D9C033F9BF5083FDA390E3F8B
:10194C002A68133FC07F183FD17F1D3F9967223F04
:10195C005636273F4AEB2B3FBB85303FF304353FD0
:10196C004268393FF9AE3D3F70D8413F03E4453FF3
:10197C0012D1493F029F4D3F3D4D513F31DB543F0A
:10198C005348583F1A945B3F05BE5E3F98C5613F74
:10199C0059AA643FD86B673FA7096A3F5E836C3FC7
:1019AC009ED86E3F0809713F4714733F0BFA743F82
:1019BC0007BA763FF853783F9DC7793FBE147B3FFB
:1019CC00283B7C3FAC3A7D3F24137E3F6DC47E3F69
:1019DC006D4E7F3F0FB17F3F43EC7F3F0000803F58
:1019EC0043EC7F3F0FB17F3F6D4E7F3F6DC47E3F19
:1019FC0024137E3FAC3A7D3F283B7C3FBE147B3F9B
:101A0C009DC7793FF853783F07BA763F0BFA743F7E
:101A1C004714733F0809713F9ED86E3F5E836C3F3D
:101A2C00A7096A3FD86B673F59AA643F98C5613FC5
:101A3C0005BE5E3F1A945B3F5348583F31DB543F21
:101A4C003D4D513F029F4D3F12D1493F03E4453F6D
:101A5C0070D8413FF9AE3D3F4268393FF304353F02
:101A6C00BB85303F4AEB2B3F5636273F9967223FC9
:101A7C00D17F1D3FC07F183F2A68133FDA390E3FD4
:101A8C009BF5083F3D9C033F275DFC3EEA5AF13E27
:101A9C007533E63E80E8DA3ECA7BCF3E15EFC33E97
:101AAC002A44B83ED47CAC3EE59AA03E31A0943E8C
:101ABC00938E883ECCCF783E135C603EC2C5473EC9
:101ACC00A2102F3E8340163E73B2FA3D36BDC83D80
:101ADC0005A9963D30FB483DB00AC93C0BA80C2526
:101AEC00B00AC9BC30FB48BD05A996BD36BDC8BD02
:101AFC0073B2FABD834016BEA2102FBEC2C547BE3C
:101B0C00135C60BECCCF78BE938E88BE31A094BEE1
:101B1C00E59AA0BED47CACBE2A44B8BE15EFC3BEB9
:101B2C00CA7BCFBE80E8DABE7533E6BEEA5AF1BE98
:101B3C00275DFCBE3D9C03BF9BF508BFDA390EBF89
:101B4C002A6813BFC07F18BFD17F1DBF996722BF02
:101B5C00563627BF4AEB2BBFBB8530BFF30435BFCE
:101B6C00426839BFF9AE3DBF70D841BF03E445BFF1
:101B7C0012D149BF029F4DBF3D4D51BF31DB54BF08
:101B8C00534858BF1A945BBF05BE5EBF98C561BF72
:101B9C0059AA64BFD86B67BFA7096ABF5E836CBFC5
:101BAC009ED86EBF080971BF471473BF0BFA74BF80
:101BBC0007BA76BFF85378BF9DC779BFBE147BBFF9
:101BCC00283B7CBFAC3A7DBF24137EBF6DC47EBF67
:101BDC006D4E7FBF0FB17FBF43EC7FBF000080BF56
:101BEC0043EC7FBF0FB17FBF6D4E7FBF6DC47EBF17
:101BFC0024137EBFAC3A7DBF283B7CBFBE147BBF99
:101C0C009DC779BFF85378BF07BA76BF0BFA74BF7C
:101C1C00471473BF080971BF9ED86EBF5E836CBF3B
:101C2C00A7096ABFD86B67BF59AA64BF98C561BFC3
:101C3C0005BE5EBF1A945BBF534858BF31DB54BF1F
:101C4C003D4D51BF029F4DBF12D149BF03E445BF6B
:101C5C0070D841BFF9AE3DBF426839BFF30435BF00
:101C6C00BB8530BF4AEB2BBF563627BF996722BFC7
:101C7C00D17F1DBFC07F18BF2A6813BFDA390EBFD2
:101C8C009BF508BF3D9C03BF275DFCBEEA5AF1BE25
:101C9C007533E6BE80E8DABECA7BCFBE15EFC3BE95
:101CAC002A44B8BED47CACBEE59AA0BE31A094BE8A
:101CBC00938E88BECCCF78BE135C60BEC2C547BEC7
:101CCC00A2102FBE834016BE73B2FABD36BDC8BD7E
:101CDC0005A996BD30FB48BDB00AC9BC9E3B8DA57D
:081CEC00B00AC93C18000020F9
:081CF400F0E4FF7F0100000095
:081CFC00B9160008AD01000853
:041D04008901000849
:101D080000000000000000000000000001020304C1
:101D18000607080900BD01050000000004030020B3
:101D28006C030020D4030020000000000000000025
:101D3800000000000000000000000000000000009B
:101D4800000000000000000000000000000000008B
:101D5800000000000000000000000000000000007B
:101D6800000000000000000000000000000000006B
:101D7800000000000000000000000000000000005B
:101D8800000000000000000000000000000000004B
:101D9800000000000000000000000000000000003B
:101DA800000000000000000000000000000000002B
:101DB800000000000000000000000000000000001B
:101DC80001000000000000000E33CDAB34126DE6B8
:101DD800ECDE05000B000000000000000000000021
:101DE80000000000000000000000000000000000EB
:101DF80000000000000000000000000000000000DB
:101E080000000000000000000000000000000000CA
:101E180000000000000000000000000000000000BA
:04214800180000205B
:04214C00000000008F
:040000050800156179
:00000001FF
