:020000040800F2
:10000000FFFF002091150008E1150008E115000828
:10001000E1150008E1150008E115000800000000E6
:10002000000000000000000000000000E1150008D2
:10003000E115000800000000E1150008E1150008C6
:10004000E1150008E1150008E1150008E1150008B8
:10005000E1150008E1150008E1150008E1150008A8
:10006000E1150008E1150008E1150008E115000898
:10007000E1150008E1150008E1150008E115000888
:10008000FD080008E1150008E1150008E115000869
:10009000E1150008E1150008E1150008E115000868
:1000A000E1150008E1150008E1150008E115000858
:1000B000CD040008E1150008E1150008E11500086D
:1000C000E1150008E1150008E1150008E115000838
:1000D000E115000851100008E1150008E1150008BD
:1000E000E1150008E1150008E1150008E115000818
:1000F000E1150008E1150008E115000845090008B0
:10010000E1150008E1150008E11500088D09000857
:10011000E1150008E1150008E1150008E1150008E7
:10012000E1150008E1150008E1150008E1150008D7
:10013000E1150008E1150008E1150008E1150008C7
:10014000E1150008E1150008E1150008E1150008B7
:10015000E1150008E1150008E1150008E1150008A7
:10016000E1150008E1150008E1150008E115000897
:10017000E1150008E1150008E1150008E115000887
:08018000E1150008E11500087B
:1001880008B540F21C00074BC2F200001B1A062BF0
:1001980000D808BD40F20003C0F20003002BF8D0DD
:1001A8009847F6E71F00002008B540F21C0040F20F
:1001B8001C03C2F20000C2F200031B1A9B1003EBDF
:1001C800D373591000D108BD40F20002C0F20002FA
:1001D800002AF8D09047F6E710B540F21C04C2F2A6
:1001E8000004237873B9FFF7CBFF40F20003C0F295
:1001F80000032BB141F23060C0F60000AFF300807D
:100208000123237010BD00BF08B540F20003C0F2FF
:1002180000034BB141F2306040F22001C0F600000B
:10022800C2F20001AFF3008040F21800C2F20000F1
:1002380003682BB140F20003C0F2000303B19847F2
:10024800BDE80840FFF7B0BF014B01221A707047A4
:100258003800002030B585B000F0F8FB0023029389
:100268008DF80C307D4B7E4A1B88ADF804305169FF
:1002780004AC41F010010123516104F8083D4A2003
:100288000D21224600F02AFC18B9764B1A68013273
:100298001A6099254A200021224601238DF808502A
:1002A80000F01CFC18B96F4B1A6801321A608025DF
:1002B8004A204721224601238DF8085000F00EFC01
:1002C80018B9684B1A6801321A604A20322101AA0B
:1002D800012300F04DFC18B9624B5A6801325A608C
:1002E8009DF804504A2065F07F05322122460123FB
:1002F8008DF8085000F0F2FB18B95A4B1A68013211
:100308001A604A20322101AA012300F031FC18B9F1
:10031800544B5A6801325A609DF804504A2005F03F
:100328007F053221224601238DF8085000F0D6FBC4
:1003380018B94C4B1A6801321A6000254A20294620
:10034800224601238DF8085000F0C8FB18B9454B28
:100358001A6801321A60AF254A2004212246012377
:100368008DF8095000F0BAFB18B93E4B1A680132F3
:100378001A6070254A200D21224601238DF8085065
:1003880000F0ACFB18B9374B1A6801321A608125A6
:100398004A200521224601238DF8085000F09EFBD3
:1003A80018B9304B1A6801321A6007254A2006210D
:1003B800224601238DF8085000F090FB18B9294B0C
:1003C8001A6801321A6000254A200A2122460123B0
:1003D8008DF8085000F082FB18B9224B1A680132D8
:1003E8001A6000254A202721224601238DF808504B
:1003F80000F074FB18B91B4B1A6801321A600A2501
:100408004A209A21224602238DF808508DF8095077
:1004180000F064FB18B9134B1A6801321A600F25F3
:100428004A201F21224601238DF8085000F056FB70
:1004380018B90C4B1A6801321A6022464A209E24C9
:10044800022101238DF8084000F048FB18B9054B3C
:100458001A6801321A6005B030BD00BF4C1600089A
:10046800000C02405C0C00200D4A116C4FF08043D8
:1004780041F0010111644FF47A521A859A8992B2B7
:1004880042F001029A813022DA621A8892B242F06E
:1004980081021A801C2001229A8200F073BC00BFDE
:1004A80000380240014B1868704700BF640C0020F8
:1004B800034A1368C01802D013689842FCD87047E2
:1004C800640C002008B5FFF7BFFE4FF08043002200
:1004D8001A8208BD284A1168002341F00101116001
:1004E8009360116821F0847121F4803111602349EF
:1004F8005160116821F480211160D360136843F4BE
:10050800803313601368980306D44FF4A06311680E
:10051800890301D4013BFAD1174B1949194A59608B
:10052800196C41F080511964116821F480411160FF
:100538009A689A609A689A609A6842F480529A60B7
:100548001A6842F080721A6019460B680A4A9B01C1
:10055800FBD50D4B40F202711960936823F0030339
:100568009360936843F002039360936803F00C036D
:10057800082BFAD1704700BF003802401030002421
:100588000854410700700040003C0240034BD3F878
:10059800882042F47002C3F88820704700ED00E01C
:1005A800074A936823F400039360064BC2F884302B
:1005B800136843F08063136013681B01FCD5704710
:1005C8000038024080400030F0B4184C184D276BBA
:1005D80055F8206005EB80053E43686926630325CE
:1005E8004C00066805FA04F5ED4302FA04F22E40C1
:1005F800164306604268012606FA01F603FA01F37B
:1006080022EA06021A43426083689DF810202B40B4
:1006180002FA04F213438360C3689DF814201D4056
:1006280002FA04F42C43C460F0BC7047003802405E
:100638005016000870B40F4B0F4C1E6B54F8205026
:1006480004EB8004072946EA0500186363690DD89E
:10065800203389001C680F2000FA01F024EA00000A
:1006680002FA01F10143196070BC7047243308395C
:10067800EFE700BF0038024050160008044B03EBB8
:10068800800002FA01F24369586902435A617047CF
:1006980050160008064B03EB8000012243691B69D2
:1006A80002FA01F119420CBF00200120704700BF77
:1006B80050160008054A064B116B41F008011163FA
:1006C8001A6842F0AA421A60704700BF0038024018
:1006D800000C024030B40F4C656925F47045656123
:1006E80018B1606940F48050606121B109494869D6
:1006F80040F40050486122B1064A516941F48041F2
:10070800516123B1034B5A6942F400425A6130BC2B
:10071800704700BF000C0240024B5A6922F4704235
:100728005A617047000C024070B582B0002402255F
:100738002C4E009503200421012223460195347094
:100748007460B460F46034617461FFF73DFF264B58
:100758006FF010025A61284607212A462346009561
:100768000194FFF731FF28460A212A4623460095BF
:100778000194FFF729FF28460C212A4623460095B5
:100788000194FFF721FF234604212A4620460095BD
:100798000194FFF719FF204604210622FFF74AFFBC
:1007A800284607210622FFF745FF28460A21062288
:1007B800FFF740FF0C2106222846FFF73BFF0B4AB4
:1007C8000B4B116C41F40041116440F608629A83A6
:1007D8004FF408721A849A8892B242F080029A8082
:1007E80002B070BD680C0020000C024000380240C6
:1007F800003C0040F0B5214D214C224B00266E6094
:100808002E60256825F0010525601F6827F001077F
:1008180087B005460E461F602368DB07FCD4194CD9
:10082800236813F00103FBD1B5B1AEB116490593A6
:10083800164B009105206946019202930395049690
:1008480000F056FA0720694600F052FA102000F02E
:1008580099FA2F2000F096FA0D49094A8888094B21
:1008680080B240F002008880116841F001011160F7
:100878001A6842F001021A6007B0F0BD0060024039
:1008880088600240B8600240542D02000C3C0040D1
:10089800003C0040094B0A4900225A601A600B6864
:1008A80023F001030B600B68054ADB07FBD450609B
:1008B800136843F001031360704700BF00600240F3
:1008C80088600240094B0A4900225A601A600B6886
:1008D80023F001030B600B68054ADB07FBD450606B
:1008E800136843F001031360704700BF00600240C3
:1008F800B86002400F4B5A680F4B100502F4646150
:1009080002D5586801305860900502D598680130C2
:100918009860500502D5D8680130D860520602D5D3
:100928001A6901321A61034AD1605A6901325A615F
:10093800704700BF00600240680C00200F4B5A68E7
:100948000F4B100102F0646102D5586801305860FD
:10095800900102D5986801309860500102D5D86896
:100968000130D860520202D51A6901321A61034A6D
:10097800D1605A6901325A61704700BF0060024075
:10098800680C0020094B1A783AB1094A51690020CD
:1009980021F01001187051617047064A516941F001
:1009A8001001516101221A70704700BF680C0020C5
:1009B800000C024000000240214B1A6CF0B542F4D2
:1009C8000012204C1A6423881F4F83B06FEA4343F8
:1009D800022500266FEA53432380012006212A4678
:1009E8003346009501953E70FFF7EEFD3346012032
:1009F80009212A4600950195FFF7E6FD0120062109
:100A08000422FFF717FE012009210422FFF712FE36
:100A18001123238423885B045B0C238023889BB2E7
:100A280043F4806343F00103238048F20803A3835F
:100A38001023A3804FF48043238103B0F0BD00BF8F
:100A48000038024000540040800C0020204B1A6CF3
:100A5800F0B542F400121F4C1A6423881E4F6FEA47
:100A6800434383B00225002601206FEA53432380C5
:100A7800062103462A468DE860003E70FFF7A4FD74
:100A88000120034609212A468DE86000FFF79CFDF6
:100A9800012006210422FFF7CDFD012009210422AF
:100AA800FFF7C8FD1123238423885B045B0C238094
:100AB80023889BB243F00103238048F28003A38379
:100AC8001023A38044F24A03238103B0F0BD00BF82
:100AD8000038024000540040800C0020F0B4002A86
:100AE8003FD0214E3478002C3BD1204F3C8B3C88A2
:100AF800A4B244F48074012535703C80BC8A1B4D37
:100B0800E407FBD5400028822846848A174D04F064
:100B18000204A4B2002CF8D0288B2982A98A134891
:100B280001F0800189B20029F8D043B11378024658
:100B38000382938A03F080039BB2002BF9D00B4900
:100B48008B8A0A4A03F004039BB2002BF8D013885F
:100B58009BB243F400731380002333700120F0BC70
:100B680070470020FBE700BF800C002000540040C5
:100B7800F0B4002A74D0504C2578002D70D14F4F16
:100B88003D8B3D88ADB245F48075022626703D80C8
:100B9800BD8A4A4EED07FBD540003082B58A474FE3
:100BA80005F00205ADB2002DF8D03D8B39824AF22E
:100BB800010101E0013953D0BD8A404E05F080059E
:100BC800ADB2002DF6D0318889B241F48071318000
:100BD800B18A3A4DC907FBD540F001002882A98A9D
:100BE80001F0020189B20029F9D04BB33348032B35
:100BF8000CD9018B818A01F0040189B20029F9D04E
:100C08002E49098A013B02F8011BDBB2032B2AD0CB
:100C1800012BECD129490B8823F480631B041B0C9E
:100C28000B800B8B0B889BB243F400730B808B8A71
:100C380003F040039BB2002BF9D0204B1B8A1370A2
:100C48001E490B881D4A03F400739BB2002BF8D190
:100C5800118823708BB243F480631380012000E075
:100C68000020F0BC70471548838A144903F0040338
:100C78009BB2002BF8D00B8823F480631B041B0C59
:100C88000B800B8A08461370838A0C4903F04003D3
:100C98009BB2002BF8D00B8A53700B889BB243F49D
:100CA80000730B808B8A03F040039BB2002BF9D0B2
:100CB800024B1B8A9370C3E7800C0020005400404D
:100CC800064B998A1A8B8BB243EA02430340B3EB73
:100CD800000CDCF1000050EB0C00704700540040A1
:100CE800024B1A6B42F400121A6370470038024034
:100CF80001380C4B53F8203000221A608A689A6039
:100D08004A685A600A681A601A6822F400221A604F
:100D1800CA68DA601A6842F400221A600A691A611D
:100D2800704700BF7816000870B582B000248DF8AF
:100D380005408DF806408DF80740FFF73DFE9DF809
:100D480005609DF8065021460DF10502012346F085
:100D58001C0665F01F051E208DF805608DF80650ED
:100D6800FFF7BCFE01210B460DF106021E20FFF71E
:100D7800B5FE1E2002210DF107020123FFF7AEFE8A
:100D880002B070BD00280346B8BF00F11F035B1115
:100D98000122A0EB431002FA00F0024A42F82300B5
:100DA800704700BF00E100E000280346B8BF00F12B
:100DB8001F035B11A0EB4310012202FA00F020335D
:100DC800014A42F82300704700E100E010B51028FE
:100DD80082B00B4613D8190611D411060FD400F0AF
:100DE8000F0060F06F04032101A88DF804408DF80E
:100DF80005308DF8062000F015F9012000E00020EC
:100E080002B010BD10B5102882B00B4613D81906D1
:100E180011D411060FD400F00F0060F07F040321F5
:100E280001A88DF804408DF805308DF8062000F0F3
:100E3800F9F8012000E0002002B010BD10B510281C
:100E480082B00B4613D8190611D411060FD400F03E
:100E58000F0060F05F04032101A88DF804408DF8AD
:100E680005308DF8062000F0DDF8012000E00020B4
:100E780002B010BD10B5102882B00B4613D8190661
:100E880011D411060FD400F00F0060F04F040321B5
:100E980001A88DF804408DF805308DF8062000F083
:100EA800C1F8012000E0002002B010BD00B51028F4
:100EB80083B00B460FD80A060DD400F00F0060F07F
:100EC8003F02022101A88DF804208DF8053000F0BA
:100ED800A9F8012000E0002003B000BD00B51028EB
:100EE80083B00B460FD819060DD400F00F0060F040
:100EF8002F02022101A88DF804208DF8053000F09A
:100F080091F8012000E0002003B000BD10B51028C2
:100F180082B00B4613D8190611D411060FD400F06D
:100F28000F0060F01F04032101A88DF804408DF81C
:100F380005308DF8062000F075F8012000E000204B
:100F480002B010BD314B1A6B42F003022DE9F04399
:100F58001A635A6CDFF8C8E02D4E2E4D42F010028D
:100F68005A641F6C002447F4003783B0CEF8004061
:100F780081461F64204602210722FFF75BFB4FF0E2
:100F88000108072102270A464046FFF753FB40465F
:100F980039463A4623468DE88001FFF715FB23467C
:100FA800404607213A468DE88001FFF70DFB1A48B5
:100FB8001A49348209FA07F9B0FBF9F0A1FB0032AB
:100FC8005209642302FB13031B013233A1FB030301
:100FD800C3F3431343EA021324222C82B28108226A
:100FE800AA812520B482AC8233812B81FFF7CAFE07
:100FF800B3899BB243F40053B381AB899BB243F4EA
:101008000053AB8103B0BDE8F08300BF0038024055
:1010180000100140004400400084D7171F85EB51A1
:10102800840C002061B1074A411810F8013B9380F5
:10103800138803F040039BB2002BF9D08842F4D107
:10104800704700BF0044004038B50A4C238803F0BD
:1010580020039BB26BB1084DA0886B68C0B298475B
:1010680023882A6823F020031B041B0C01322380E9
:101078002A6038BD00100140840C0020444A454BCA
:10108800D2F88800444940F47000C2F88800186813
:10109800002240F0010018609A6018680A6020F089
:1010A800847020F4803018603C485860186882B01A
:1010B80020F480201860DA60009201921A6842F4E5
:1010C80080321A601A4603E0009BB3F5A06F09D07E
:1010D800136803F400330193009B01330093019BD1
:1010E800002BF1D02B4B1B6813F4003347D001239E
:1010F8000193019B012B46D001230B602549284B06
:101108000A6C42F080520A641A6822F480421A601B
:101118008B688B608B688B608B6843F480538B6023
:101128000B6843F080730B600B681A4A9801FBD573
:101138001C4B40F202711960936823F0030393601B
:10114800936843F00203936011468B68114A03F0D9
:101158000C03082BF9D1936823F400039360124B16
:10116800C2F88430136843F08063136013681B016E
:10117800FCD5074B4FF000629A6002B070470193AC
:10118800019B012BB8D1094A024B5A60B6E700BF50
:1011980000ED00E0003802408C0C002010300024E4
:1011A80000700040003C0240804000300854410775
:1011B800164B9A6802F00C02042A0CD0082A0CD0AC
:1011C800134A1249134B8968C1F30311595C22FA77
:1011D80001F21A617047104AF3E7586859685B686A
:1011E80042024CBF0C4A0A4A01F03F01C3F388137C
:1011F800B2FBF1F202FB03F2044B5B68C3F3014359
:1012080001335B00B2FBF3F2DBE700BF00380240BA
:101218000024F4000400002000127A00A81A000834
:1012280000000020180000201C000020900C002066
:1012380006EE900A9FED337AF5EEC06A26EE877ABD
:10124800F1EE10FAFDEEC77A56D4F8EEE77ADFED44
:101258002E6A77EE677AB6EE004A67EEA67A9FEDB9
:101268002B6ABCEEE77A2A4AF8EEC76A17EE103AFC
:1012780077EEE67ADFED276A27EEA77A67EE844AEB
:1012880027EE044A67EEA66AF0EE445A47EEC65ABD
:10129800B3F5807FA8BF4FF48073B0EE656A64EE43
:1012A800875A26EE875A74EE277A23EAE373B7EE55
:1012B800004A02EB830335EEC77A74EE644A36EED1
:1012C800456A93ED002A75EE666AD3ED032A37EE78
:1012D800247A93ED013A77EEE55AD3ED023A26EEF9
:1012E800026A66EEA26A07EE036A45EEA36A76EE24
:1012F800266A16EE900A704717EE903A013B07EE01
:10130800903AA2E783F9223E00008043ABAAAA3EA6
:1013180094160008ABAA2A3E2DE9F04F2DED048B58
:10132800924C83B000256570FFF742FFFFF7C2F9C2
:10133800FFF7FAF9FEF78EFFFFF7D2FCFFF7F4FC90
:1013480047F61220FFF7FEFDFFF78EF82046002330
:1013580000F8145B04F214414FF4007265602574C0
:101368006574A574A360E360FFF744FA04F6180BEC
:101378009FED7F9A9FED7F8A04F61C0604F50265AF
:10138800ABF20448274694F81438227C9A4250D08D
:1013980006EE903AB8EE667AF3EE087AC7EE277A48
:1013A80077EE897A88EE277AFCEEE76ACBED007A49
:1013B80016EE902A92B286ED007ACAB3DFF8C4918D
:1013C8004FF0000AF3EE0E8AE068FFF731FF07EEF0
:1013D800100A94F8200C94ED036A06EE900AD6EDF4
:1013E800007AF8EEE66A76EE277A66EEA86AF4EEF8
:1013F800C87AF1EE10FAC8BF77EEC87A67EE266AA7
:10140800C7ED037AFCEEE66ADBED007A16EE901A79
:10141800FCEEE77A29F8021F17EE901A0AF1010A82
:1014280089B2514584ED027ACEDC504B93F81438DA
:1014380023746378D3F1010338BF00236370002B52
:1014480038D14D4A5368012BFBD8DBED007AFCEE0E
:10145800E77A17EE900A80B2FFF734FADBED007AEC
:10146800FCEEE77A17EE901A89B239B149000023E9
:10147800EA5A28F8032002338B42F9D194F8143839
:10148800A3742378012B38D094F814383F2B5AD9F9
:10149800A3F140023F2A5DD983F0800301203F2B4E
:1014A800014602465DD90346FFF714F96368013324
:1014B800636068E7314A5368012BFBD8DBED007A9B
:1014C800FCEEE77A17EE900A80B2FFF7E3F9DBED5E
:1014D800007AFCEEE77A17EE901A89B239B1490022
:1014E8000023EA5A2648C25202338B42F9D194F8B3
:1014F800143863742378012BC6D106231E200321D8
:101508006A464FF0020E87F800E0FFF731FB9DF8BE
:1015180001209DF8033087F81428802A87F8203C9A
:1015280001D8110602D4803A87F81428802B01D8F4
:101538001A0602D4803B84F8203C0023237094F8D8
:1015480014383F2BA4D8002101200A460B46FFF788
:10155800C1F8ABE70120002201461346FFF7BAF8AD
:10156800A4E70023FFF7B6F8A0E700BF3800002083
:1015780000004042DB0FC940B8600240886002406A
:101588004C00002056080020002100F004B80D4B44
:101598005B58435004310C480C4B42189A42FFF4F4
:1015A800F6AF0B4A00F003B8002342F8043B094B9E
:1015B8009A42FFF4F9AFFFF761FD00F00FF8FFF76B
:1015C800ABFE7047A81A0008000000201800002091
:1015D8001C000020900C0020FFF7FEBF70B500240F
:1015E8000D4B0E4D1E46ED1AAD1003E056F82420A3
:1015F80001349047AC42F9D100F018F8084D094B76
:101608000024ED1A1E46AD1003E056F824200134DC
:101618009047AC42F9D170BDA01A0008A01A000882
:10162800A41A0008A01A000800000000F8B500BFBE
:10163800F8BC08BC9E467047F8B500BFF8BC08BCAB
:041648009E46704703
:10164C00FFFF000001000000020000000400000089
:10165C0008000000100000000000024000040240DE
:10166C0000080240000C02400010024028600240BA
:10167C004060024058600240706002408860024046
:10168C00A0600240B8600240B00AC9BC0000000073
:10169C00B00AC93C30FB483D05A9963D36BDC83D56
:1016AC0073B2FA3D8340163EA2102F3EC2C5473E90
:1016BC00135C603ECCCF783E938E883E31A0943E36
:1016CC00E59AA03ED47CAC3E2A44B83E15EFC33E0E
:1016DC00CA7BCF3E80E8DA3E7533E63EEA5AF13EED
:1016EC00275DFC3E3D9C033F9BF5083FDA390E3FDE
:1016FC002A68133FC07F183FD17F1D3F9967223F57
:10170C005636273F4AEB2B3FBB85303FF304353F22
:10171C004268393FF9AE3D3F70D8413F03E4453F45
:10172C0012D1493F029F4D3F3D4D513F31DB543F5C
:10173C005348583F1A945B3F05BE5E3F98C5613FC6
:10174C0059AA643FD86B673FA7096A3F5E836C3F19
:10175C009ED86E3F0809713F4714733F0BFA743FD4
:10176C0007BA763FF853783F9DC7793FBE147B3F4D
:10177C00283B7C3FAC3A7D3F24137E3F6DC47E3FBB
:10178C006D4E7F3F0FB17F3F43EC7F3F0000803FAA
:10179C0043EC7F3F0FB17F3F6D4E7F3F6DC47E3F6B
:1017AC0024137E3FAC3A7D3F283B7C3FBE147B3FED
:1017BC009DC7793FF853783F07BA763F0BFA743FD1
:1017CC004714733F0809713F9ED86E3F5E836C3F90
:1017DC00A7096A3FD86B673F59AA643F98C5613F18
:1017EC0005BE5E3F1A945B3F5348583F31DB543F74
:1017FC003D4D513F029F4D3F12D1493F03E4453FC0
:10180C0070D8413FF9AE3D3F4268393FF304353F54
:10181C00BB85303F4AEB2B3F5636273F9967223F1B
:10182C00D17F1D3FC07F183F2A68133FDA390E3F26
:10183C009BF5083F3D9C033F275DFC3EEA5AF13E79
:10184C007533E63E80E8DA3ECA7BCF3E15EFC33EE9
:10185C002A44B83ED47CAC3EE59AA03E31A0943EDE
:10186C00938E883ECCCF783E135C603EC2C5473E1B
:10187C00A2102F3E8340163E73B2FA3D36BDC83DD2
:10188C0005A9963D30FB483DB00AC93C0BA80C2578
:10189C00B00AC9BC30FB48BD05A996BD36BDC8BD54
:1018AC0073B2FABD834016BEA2102FBEC2C547BE8E
:1018BC00135C60BECCCF78BE938E88BE31A094BE34
:1018CC00E59AA0BED47CACBE2A44B8BE15EFC3BE0C
:1018DC00CA7BCFBE80E8DABE7533E6BEEA5AF1BEEB
:1018EC00275DFCBE3D9C03BF9BF508BFDA390EBFDC
:1018FC002A6813BFC07F18BFD17F1DBF996722BF55
:10190C00563627BF4AEB2BBFBB8530BFF30435BF20
:10191C00426839BFF9AE3DBF70D841BF03E445BF43
:10192C0012D149BF029F4DBF3D4D51BF31DB54BF5A
:10193C00534858BF1A945BBF05BE5EBF98C561BFC4
:10194C0059AA64BFD86B67BFA7096ABF5E836CBF17
:10195C009ED86EBF080971BF471473BF0BFA74BFD2
:10196C0007BA76BFF85378BF9DC779BFBE147BBF4B
:10197C00283B7CBFAC3A7DBF24137EBF6DC47EBFB9
:10198C006D4E7FBF0FB17FBF43EC7FBF000080BFA8
:10199C0043EC7FBF0FB17FBF6D4E7FBF6DC47EBF69
:1019AC0024137EBFAC3A7DBF283B7CBFBE147BBFEB
:1019BC009DC779BFF85378BF07BA76BF0BFA74BFCF
:1019CC00471473BF080971BF9ED86EBF5E836CBF8E
:1019DC00A7096ABFD86B67BF59AA64BF98C561BF16
:1019EC0005BE5EBF1A945BBF534858BF31DB54BF72
:1019FC003D4D51BF029F4DBF12D149BF03E445BFBE
:101A0C0070D841BFF9AE3DBF426839BFF30435BF52
:101A1C00BB8530BF4AEB2BBF563627BF996722BF19
:101A2C00D17F1DBFC07F18BF2A6813BFDA390EBF24
:101A3C009BF508BF3D9C03BF275DFCBEEA5AF1BE77
:101A4C007533E6BE80E8DABECA7BCFBE15EFC3BEE7
:101A5C002A44B8BED47CACBEE59AA0BE31A094BEDC
:101A6C00938E88BECCCF78BE135C60BEC2C547BE19
:101A7C00A2102FBE834016BE73B2FABD36BDC8BDD0
:101A8C0005A996BD30FB48BDB00AC9BC9E3B8DA5CF
:041A9C00B00AC93C87
:041AA0001102000827
:041AA400E101000854
:101AA8000000000000000000000000000102030424
:081AB8000607080900BD010545
:041AC0000000000022
:040000050800159149
:00000001FF
