:020000040800F2
:10000000FFFF00204D160008951600089516000801
:1000100095160008951600089516000800000000C7
:10002000000000000000000000000000951600081D
:1000300095160008000000009516000895160008A7
:1000400095160008951600089516000895160008E4
:1000500095160008951600089516000895160008D4
:1000600095160008951600089516000895160008C4
:1000700095160008951600089516000895160008B4
:1000800095160008951600089516000895160008A4
:100090009516000895160008951600089516000894
:1000A0009516000895160008951600089516000884
:1000B000D504000895160008951600089516000846
:1000C0009516000895160008951600089516000864
:1000D00095160008C10F000895160008951600082F
:1000E0009516000895160008951600089516000844
:1000F00095160008951600089516000801090008D5
:100100009516000895160008951600089516000823
:100110009516000895160008951600089516000813
:100120009516000895160008951600089516000803
:1001300095160008951600089516000895160008F3
:1001400095160008951600089516000895160008E3
:1001500095160008951600089516000895160008D3
:1001600095160008951600089516000895160008C3
:1001700095160008951600089516000895160008B3
:08018000951600089516000811
:1001880010B5054C237833B9044B13B10448AFF3C9
:1001980000800123237010BD4804002000000000E7
:1001A8006C190008084B10B51BB108490848AFF393
:1001B80000800848036803B910BD074B002BFBD02B
:1001C800BDE81040184700BF000000004C040020A4
:1001D8006C1900084404002000000000154B002B97
:1001E80008BF134B9D46A3F5803A00218B460F4666
:1001F8001348144A121A01F083FA0F4B002B00D04F
:1002080098470E4B002B00D098470020002104008F
:100218000D000D48002802D00C4801F035FB01F014
:1002280047FA2000290001F0BFF801F031FA00BFB9
:1002380000000800000000000000000000000000AE
:1002480048040020A40C0020911800089D180008FC
:10025800014B01221A7070476404002010B584B065
:1002680000F0B8FB7F4B804A1B88ADF804300023B0
:1002780002938DF80C305369012443F01003536145
:100288000D2102AA23464A208DF8084000F0EAFB17
:1002980018B9764A1368234413609924012302AAE3
:1002A80000214A208DF8084000F0DCFB18B96F4A9D
:1002B8001368013313608024012302AA47214A20CE
:1002C8008DF8084000F0CEFB18B9684A136801336E
:1002D800136001AA012332214A2000F003FC18B957
:1002E800624A5368013353609DF80440012364F067
:1002F8007F0402AA32214A208DF8084000F0B2FBA0
:1003080018B95A4A13680133136001AA012332212C
:100318004A2000F0E7FB18B9544A53680133536088
:100328009DF80440012304F07F0402AA32214A20E8
:100338008DF8084000F096FB18B94C4A1368013351
:10034800136000242146012302AA4A208DF80840A0
:1003580000F088FB18B9454A136801331360AF24CD
:10036800012302AA04214A208DF8094000F07AFBF3
:1003780018B93E4A1368013313607024012302AA96
:100388000D214A208DF8084000F06CFB18B9374A57
:100398001368013313608124012302AA05214A202E
:1003A8008DF8084000F05EFB18B9304A1368013335
:1003B80013600724012302AA06214A208DF8084069
:1003C80000F050FB18B9294A136801331360002460
:1003D800012302AA0A214A208DF8084000F042FBB6
:1003E80018B9224A1368013313600024012302AAB2
:1003F80027214A208DF8084000F034FB18B91B4A21
:100408001368013313600A24022302AA9A214A209E
:100418008DF808408DF8094000F024FB18B9134AFC
:100428001368013313600F24012302AA1F214A20F5
:100438008DF8084000F016FB18B90C4A1368013310
:1004480013609E2402AA012302214A208DF8084045
:1004580000F008FB18B9054A13680133136004B0AB
:1004680010BD00BF88190008000C02407C0C002059
:100478000D490A6C4FF0804342F001024FF47A5064
:100488000A6418859A8992B242F0010230219A8151
:10049800D9621A8892B242F0810201211A801C2086
:1004A800998200F029BC00BF00380240014B18684F
:1004B800704700BF840C0020034A1368C01802D09C
:1004C80013688342FCD37047840C002008B5FFF7FB
:1004D800BFFE4FF0804300221A8208BD294B2A48EC
:1004E8001A68002142F001021A6099601A6822F025
:1004F800847222F480321A6058601A6822F48022CA
:100508001A60D9601A6842F480321A601A68920335
:1005180007D41A464FF4A0631168880301D4013B3D
:10052800FAD1184B194A5A601A6C194942F080528C
:100538001A640A6822F480420A609A689A609A6883
:100548009A609A6842F480529A601A6842F08072FF
:100558001A601A4611680B4B8901FBD50D4A40F207
:10056800027111609A6822F003029A609A6842F058
:1005780002029A601A46936803F00C03082BFAD11A
:10058800704700BF0038024010300024085441076B
:1005980000700040003C0240034AD2F8883043F41F
:1005A8007003C2F88830704700ED00E0074A084938
:1005B800936823F400039360C2F88410136843F02F
:1005C8008063136013681B01FCD570470038024034
:1005D80000300050F0B5DFF868E0184CDEF830C0A5
:1005E80054F820709DF814609DF8185004EB8004AE
:1005F8004CEA07076069CEF8307003244F00D0F842
:1006080000E0BC40E4430EEA040EBA404EEA02029F
:10061800026042684FF0010E0EFA01FE8B4022EA9A
:100628000E02134343608368BE4023401E43866026
:10063800C368BD401C402C43C460F0BD8C19000841
:100648000038024070B40F4B0F4D53F820402E6B0A
:1006580003EB80033443072958692C630DD8036AD8
:1006680000F1200489000F20884002FA01F123EAF2
:1006780000021143216070BC7047083900F124045E
:10068800436AEFE78C19000800380240044B03EB7B
:1006980080008A40406943691A434261704700BF3D
:1006A8008C190008064B03EB80000123426912698C
:1006B80003FA01F1114214BF18460020704700BF29
:1006C8008C1900080549064A0B6B43F008030B63B5
:1006D800136843F0AA431360704700BF0038024014
:1006E800000C024030B40F4C656925F47045656113
:1006F80018B1606940F48050606121B109484169CE
:1007080041F40051416122B106494A6942F48042EC
:100718004A6123B1034A536943F40043536130BC2F
:10072800704700BF000C0240024A536923F470432B
:1007380053617047000C024070B582B00025022456
:100748002C4E01942B46009401220421032035608D
:100758007560B560F5603561FFF73CFF264B6FF0BB
:1007680010025A6120462B468DE8300022460721A8
:10077800FFF730FF8DE830002B46224620460A213D
:10078800FFF728FF8DE830002B46224620460C2133
:10079800FFF720FF2B468DE830002246284604212B
:1007A800FFF718FF284606220421FFF74BFF2046D3
:1007B80006220721FFF746FF204606220A21FFF7F7
:1007C80041FF204606220C21FFF73CFF0B490C4A4B
:1007D8000B6C40F6086443F4004340F206200B64B7
:1007E8009483108493889BB243F08003938002B073
:1007F80070BD00BF880C0020000C02400038024089
:10080800003C00401E4B70B51E4C1F4D00265E601C
:100818001E60236823F0010323602B6823F0010383
:1008280086B02B602368DB07FCD4174C236813F0D1
:100838000103FBD188B181B10D46144900910446EA
:10084800134E019207206946029605930394049576
:1008580000F0FEF92F2000F04FFA0E48094983886E
:10086800094A9BB243F0020383800B6843F00103FB
:100878000B60136843F00103136006B070BD00BF3E
:100888000060024088600240B8600240542D0600B3
:100898000C3C0040003C0040094B0A4A00215960CA
:1008A8001960136823F00103136013680549DB0717
:1008B800FBD448600B6843F001030B60704700BF2E
:1008C8000060024088600240094B0A4A00215960D2
:1008D8001960136823F00103136013680549DB07E7
:1008E800FBD448600B6843F001030B60704700BFFE
:1008F80000600240B86002400F4B5A680F4B10016D
:1009080002F0646102D5186801301860900102D5C0
:10091800586801305860500102D5986801309860D5
:10092800520202D5DA680132DA60034AD1601A69E4
:1009380001321A61704700BF00600240880C002035
:10094800214A224B70B500261E70136C204C43F4CC
:100958000013136423886FEA434382B06FEA53435A
:1009680002259BB223802A4633460195009506212D
:100978000120FFF72FFE33462A46019500950921ED
:100988000120FFF727FE042206210120FFF75AFE67
:10099800042209210120FFF755FE1123238423880F
:1009A800C3F30E03238023889BB243F4806343F090
:1009B800010348F2080010214FF480422380A083ED
:1009C800A180228102B070BD003802409C0C00203A
:1009D80000540040204A214B70B500261E70136C4D
:1009E8001F4C43F40013136423886FEA43436FEAF0
:1009F800534382B002259AB20123228018462A4620
:100A08008DE860000621FFF7E5FD012318462A4618
:100A18008DE860000921FFF7DDFD04220621012091
:100A2800FFF710FE042209210120FFF70BFE112316
:100A380023842388C3F30E03238023889BB243F0C7
:100A4800010348F28000102144F24A022380A08367
:100A5800A180228102B070BD003802409C0C0020A9
:100A680000540040002A37D0F0B41C4F3C78002CCA
:100A78002FD11B4E0124358B3C703488A4B244F42A
:100A880080743480B58A164CED07FBD5400020826F
:100A98002546AE8A124CB007FBD589B2208B21823D
:100AA800A18A0F4D0906FBD523B113782B82AB8A97
:100AB8001A06FCD50A498B8A094A5B07FBD51388B5
:100AC8009BB243F400730021138001203970F0BCFD
:100AD80070470020F0BC7047104670479C0C0020FF
:100AE80000540040002A00F09680F0B54B4C257861
:100AF800002D40F08E804A4D02262F8B26702E88BE
:100B0800B6B246F480762E80AE46BEF81460444DE8
:100B1800F707FAD54700B8B228822846868A404D9A
:100B2800B607FBD589B2288B29824AF2010101E078
:100B380001396ED0A88A3A4E0006F9D5318889B2B3
:100B480041F480713180B08A3549C007FBD547F040
:100B580001070F82888A8607FCD5002B49D03048C8
:100B6800032B06460ED9018B818A4D07FCD5013B24
:100B7800DBB2318A1170032B02F101051AD0032B65
:100B88002A46F0D8154615D0012BF8D124490B88F0
:100B980023F480631B041B0C0B800B8B0B889BB20C
:100BA80043F400730B808B8A1D485B06FBD5038AD0
:100BB80013701EE01A498A8A194B5007FBD51A8808
:100BC80022F480621204120C1A801A8A2A701A46B9
:100BD800918A134B4906FBD51A8A6A701A8892B211
:100BE80042F400721A809A8A0D495206FBD50B8A84
:100BF800AB700B490B880A4A03F400739BB2002BB5
:100C0800F8D1118889B241F48061118001202370E4
:100C1800F0BD0020F0BD0020704700BF9C0C0020F4
:100C280000540040054A938A128B9BB243EA024360
:100C380030EA03030CBF0120002070470054004035
:100C4800024A136B43F400131363704700380240E1
:100C580001380C4B53F8203000221A608A689A60D9
:100C68004A685A600A681A601A6822F400221A60F0
:100C7800CA68DA601A6842F400221A600A691A61BE
:100C8800704700BFB41900080138034B53F82030EF
:100C98001868C0F3C0407047B419000830B583B075
:100CA80000248DF805408DF806408DF80740FFF7C1
:100CB80047FE9DF806309DF8055021460DF10502C6
:100CC80063F01F0445F01C0501231E208DF8055014
:100CD8008DF80640FFF7C6FE012319460DF10602FE
:100CE8001E20FFF7BFFE01230DF1070202211E207F
:100CF800FFF7B8FE03B030BD00280346B8BF00F1C7
:100D08001F035B11A0EB43100122034902FA00F014
:100D180041F82300704700BF00E100E000280346C7
:100D2800B8BF00F11F035B11A0EB43100122203371
:100D3800024902FA00F041F82300704700E100E0A0
:100D4800102817D80B0615D4130613D410B500F0C5
:100D58000F0382B00C4663F06F0301A803218DF8DE
:100D680004308DF805408DF8062000F017F90120B1
:100D780002B010BD00207047102817D80B0615D4F4
:100D8800130613D410B500F00F0382B00C4663F0BD
:100D98007F0301A803218DF804308DF805408DF8F4
:100DA800062000F0FBF8012002B010BD00207047BB
:100DB800102817D80B0615D4130613D410B500F055
:100DC8000F0382B00C4663F05F0301A803218DF87E
:100DD80004308DF805408DF8062000F0DFF801207A
:100DE80002B010BD00207047102817D80B0615D484
:100DF800130613D410B500F00F0382B00C4663F04D
:100E08004F0301A803218DF804308DF805408DF8B3
:100E1800062000F0C3F8012002B010BD0020704782
:100E2800102814D80B0612D400B500F00F0383B0B5
:100E38000A4663F03F0301A802218DF804308DF8BB
:100E4800052000F0ABF8012003B05DF804FB00209A
:100E5800704700BF102814D80B0612D400B500F054
:100E68000F0383B00A4663F02F0301A802218DF80F
:100E780004308DF8052000F091F8012003B05DF8EA
:100E880004FB0020704700BF102817D80B0615D4A4
:100E9800130613D410B500F00F0382B00C4663F0AC
:100EA8001F0301A803218DF804308DF805408DF843
:100EB800062000F073F8012002B010BD0020704732
:100EC800304A314B2DE9F041002414601A6B2F4D44
:100ED80042F003021A635A6C42F010025A641A6C08
:100EE80042F4003282B01A6480460722204602216A
:100EF800FFF7A8FB07220120074602261146FFF745
:100F0800A1FB234601973846009632463146FFF743
:100F180061FB8DE8C0003246384623460721FFF7BB
:100F280059FB1B4B1B491C4E2C824FEA8802B1FB14
:100F3800F2F2A3FB02177F09642107FB11221201B9
:100F48003232A3FB0223C3F3431343EA07139BB2D2
:100F58002421082234822520A981B281AC82B4825E
:100F68002B813381FFF7C8FEAB899BB243F4005352
:100F7800AB81B3899BB243F40053B38102B0BDE89F
:100F8800F08100BFA00C0020003802400010014092
:100F98001F85EB510084D7170044004049B1054A2A
:100FA800014410F8013B938013885B06FCD5884206
:100FB800F7D170470044004010B5094C23889B06C0
:100FC8000DD5A0880023C0B298472388054A23F08E
:100FD80020031B041B0C238013680133136010BD0E
:100FE80000100140A00C00204049414BD1F8882056
:100FF800404842F47002C1F888201A68002142F083
:1010080001021A6099601A6822F0847222F4803210
:101018001A6058601A6882B022F480221A60D96077
:10102800009101911A6842F480321A601A4603E06E
:10103800009BB3F5A06F09D0136803F40033019344
:10104800009B01330093019B002BF1D0284B1B68B8
:1010580013F4003318BF01230193019B012B40D0E7
:10106800234A2549136C43F0805313640B6823F417
:1010780080430B609368936093689360936843F42C
:1010880080539360136843F0807313601168184BA2
:101098008901FBD5194A40F2027111609A6822F061
:1010A80003029A609A6842F002029A6019468B68B5
:1010B8000F4A03F00C03082BF9D19368104923F465
:1010C80000039360C2F88410136843F080631360D0
:1010D80013681B01FCD5054B4FF000629A6002B003
:1010E8007047034B074A5A60BAE700BF00ED00E0BB
:1010F800003802401030002400700040003C0240DC
:1011080080400030085441071848836803F00C03F6
:10111800042B28D0082B09D0154B144A154992687E
:10112800C2F303128A5CD3400B617047436841687D
:1011380013F4800F436818BF0F4801F03F020CBF3B
:101148000B49B0FBF2F1C3F3881308BFB1FBF2F10E
:1011580001FB03F2054B5B68C3F3014301335B00FA
:10116800B2FBF3F3D9E7044BD7E700BF00380240DE
:101178000024F4000400002000127A00F41D000886
:10118800000000204404002048040020A40C002093
:10119800DFED336AB5EEC00A60EE266AF1EE10FAAA
:1011A800BDEEE67A56D4B8EEC77ADFED2E7A9FED1B
:1011B8002E4ADFED2E5A2E4A76EEC76AB6EE005A50
:1011C80026EEA77AF7EE006ABCEEC76AF8EEC67A92
:1011D80016EE103A77EE677AB3F5807F67EEA74A86
:1011E80027EE853A24EE855AF1EE643AB0EE457A58
:1011F800A7EEC47AA8BF4FF4807323EAE37327EEFF
:10120800A56AB0EE630AA4EE830A02EB8303B0EE8C
:10121800474A36EEC37AF0EE466AD4EE866A77EE2F
:10122800857A37EE007AD3ED014A93ED030A93ED00
:10123800005AD3ED025AE3EE837AA3EE864A27EEEC
:10124800247A26EE800AA5EE047AA5EEA70A37EEE0
:10125800000A704717EE103A013B07EE103AA2E772
:1012680083F9223E00008043ABAAAA3EABAA2A3EDD
:10127800D0190008844641EA000313F003036DD136
:10128800403A41D351F8043B40F8043B51F8043B41
:1012980040F8043B51F8043B40F8043B51F8043B48
:1012A80040F8043B51F8043B40F8043B51F8043B38
:1012B80040F8043B51F8043B40F8043B51F8043B28
:1012C80040F8043B51F8043B40F8043B51F8043B18
:1012D80040F8043B51F8043B40F8043B51F8043B08
:1012E80040F8043B51F8043B40F8043B51F8043BF8
:1012F80040F8043B51F8043B40F8043B51F8043BE8
:1013080040F8043B403ABDD2303211D351F8043B87
:1013180040F8043B51F8043B40F8043B51F8043BC7
:1013280040F8043B51F8043B40F8043B103AEDD236
:101338000C3205D351F8043B40F8043B043AF9D287
:10134800043208D0D2071CBF11F8013B00F8013B5A
:1013580001D30B8803806046704700BF082A13D367
:101368008B078DD010F003038AD0C3F10403D21A7F
:10137800DB071CBF11F8013B00F8013B80D331F8B3
:10138800023B20F8023B7BE7043AD9D3013A11F833
:10139800013B00F8013BF9D20B7803704B7843709E
:1013A8008B788370604670472DE9F04F2DED048BE4
:1013B80085B09A4C9FED9A9ADFED9A9ADFF8788279
:1013C800FFF7EAF8FFF78AF8FFF7F0F8FFF77AF97E
:1013D800FFF7B2F9FEF742FFFFF732FCFFF75EFCBA
:1013E80047F612200025FFF76BFDFFF741F8322082
:1013F8002B462A46294601262073284666736560CF
:101408002570A57384ED029AFFF76CF904F11001B9
:1014180004F582604FF40072FFF7F4F9237B04F5BA
:10142800016604F614072546627B9A4200F0838021
:1014380007EE903AF8EEE77A9FED7B8A95F80EE092
:1014480085ED029A79EEE77A8EF0010E88EE277A1A
:10145800002210467346114685F80EE0C6ED007A64
:1014680087ED007AFFF73EF90720FFF70DFCD6ED70
:10147800007AFCEEE77A8146CDED017ABDF80400EA
:1014880078B3B9F1010F95ED020A5CD0DFF8ACB181
:10149800DFED668A4FF0000AFFF77AFED7ED007A93
:1014A800D4ED026A20EE287A37EEA60AFDEEC77A56
:1014B800B4EEC80A17EE903AD6ED007A2BF8023F40
:1014C800FCEEE77AF1EE10FACDED017ABDF80400F2
:1014D800C8BF30EE480A0AF1010A504585ED020AF4
:1014E800DADCD8F80430012BFBD8FFF7EDF9D6ED9C
:1014F800007AFCEEE77ACDED017ABDF8042042B11E
:10150800B9F1010F4FD04A49520001F58060FFF749
:10151800B1FE237B63733F2B4FD9A3F140023F2ACF
:101528006BD983F080033F2B6ED901231A461946E5
:101538001846FFF7D7F82378012B47D02B7B626832
:101548000132626070E7DFF8F8B0DFED388A4FF0FB
:10155800000AFFF71DFED4ED027AD7ED006A20EEEF
:10156800287A37EEA60AFDEEC77AB4EEC80A17EE57
:10157800903AD6ED007A2BF8023FFCEEE77AF1EECE
:1015880010FACDED017ABDF80400C8BF30EE480A64
:101598000AF1010A504585ED020ADADCD8F8043070
:1015A800012B9ED8A1E723495200A1F58060FFF7DF
:1015B80061FE237B63733F2BAFD800231A4619467D
:1015C8000120FFF78FF82378012BB7D14FF0020ED7
:1015D800062302AA03211E2085F800E0FFF782FAFD
:1015E8009DF809302B73802B01D81A0613D483F089
:1015F80080032B7300222270A1E7002301211A46E1
:101608000846FFF76FF896E70122114610460023B7
:10161800FFF768F88FE78023ECE700BF6404002039
:101628000000000000009643DB0FC9400080BB4566
:101638007404002074080020B8600240720400207E
:1016480072080020002103E00B4B5B584350043123
:101658000A480B4B42189A42F6D30A4A02E0002382
:1016680042F8043B084B9A42F9D3FFF7BDFC00F05F
:101678001FF8FFF799FE7047F41D000800000020CE
:101688004404002048040020A40C0020FEE70000C9
:1016980008B50021044600F08BF8044B1868C36BAA
:1016A80003B19847204600F05BF900BFDC1D000835
:1016B80070B50F4E0F4D761BB61018BF002405D01D
:1016C800013455F8043B9847A642F9D10A4E0B4D10
:1016D800761B00F049F9B61018BF002406D0013473
:1016E80055F8043B9847A642F9D170BD70BD00BFBC
:1016F800E81D0008E81D0008F01D0008E81D0008A6
:1017080070B4840746D0541E002A41D0CDB2034697
:1017180002E0621EE4B3144603F8015B9A07F8D1AD
:10172800032C2ED9CDB245EA05250F2C45EA0545EF
:1017380019D903F110022646103E0F2E42F8105C0C
:1017480042F80C5C42F8085C42F8045C02F11002B2
:10175800F2D8A4F1100222F00F0204F00F041032A4
:10176800032C13440DD91E462246043A032A46F890
:10177800045BFAD8221F22F003020432134404F057
:1017880003042CB1C9B21C4403F8011BA342FBD1CA
:1017980070BC704714460346C2E700BF024B13B142
:1017A800024800F071B87047000000009D1800085A
:1017B8002DE9F04F324B85B01B68029303F5A473F3
:1017C80001900E460393029BD3F848713FB3DDF8AE
:1017D8000CA04FF00109D3467C68651E0ED4013475
:1017E80007EB84044FF00008E6B1D4F800319E42BC
:1017F80018D0013D6B1CA4F10404F5D1214B73B141
:101808007B68002B36D13B68002B34D03846CBF8A8
:101818000030AFF30080DBF80070002FDCD105B09A
:10182800BDE8F08F7B682268013BAB420CBF7D604E
:10183800C4F80080002ADCD0D7F88811D7F804A0B3
:1018480009FA05F30B420FD0D7F88C110B420DD1D2
:10185800D4F88010019890477B685345B3D1DBF8E2
:101868000030BB42C5D0AEE79047F5E7D4F880001A
:101878009047F1E73B68BB461F46002FACD1CEE747
:10188800DC1D000800000000002301461A46184627
:1018980000F014B838B5074D074C2C1BA41005D020
:1018A800013C55F8043D9847002CF9D1BDE8384073
:1018B80000F060B8F41D0008F01D00082DE9F0479D
:1018C800254C2568D5F848410646884692469946EB
:1018D800C4B360681F2817DC431C76B104EB80058D
:1018E8000122C5F888A0D4F8881182401143022E3D
:1018F800C4F88811C5F808911ED00230636044F816
:1019080020800020BDE8F087144B03B34FF4C87063
:10191800AFF300800446D0B1D5F84831002780E8FD
:101928008800C5F8484138460123C4F88871C4F8CE
:101938008C71002EE1D0D1E7D4F88C110A43C4F899
:101948008C21DAE705F5A674C5F84841C1E74FF0E0
:10195800FF30BDE8F08700BFDC1D00080000000074
:10196800FEE700BF00000000F8B500BFF8BC08BCE7
:101978009E467047F8B500BFF8BC08BC9E46704745
:10198800FFFF00000100000002000000040000004A
:10199800080000001000000000000240000402409F
:1019A80000080240000C024000100240286002407B
:1019B8004060024058600240706002408860024007
:1019C800A0600240B8600240B00AC9BC0000000034
:1019D800B00AC93C30FB483D05A9963D36BDC83D17
:1019E80073B2FA3D8340163EA2102F3EC2C5473E51
:1019F800135C603ECCCF783E938E883E31A0943EF7
:101A0800E59AA03ED47CAC3E2A44B83E15EFC33ECE
:101A1800CA7BCF3E80E8DA3E7533E63EEA5AF13EAD
:101A2800275DFC3E3D9C033F9BF5083FDA390E3F9E
:101A38002A68133FC07F183FD17F1D3F9967223F17
:101A48005636273F4AEB2B3FBB85303FF304353FE3
:101A58004268393FF9AE3D3F70D8413F03E4453F06
:101A680012D1493F029F4D3F3D4D513F31DB543F1D
:101A78005348583F1A945B3F05BE5E3F98C5613F87
:101A880059AA643FD86B673FA7096A3F5E836C3FDA
:101A98009ED86E3F0809713F4714733F0BFA743F95
:101AA80007BA763FF853783F9DC7793FBE147B3F0E
:101AB800283B7C3FAC3A7D3F24137E3F6DC47E3F7C
:101AC8006D4E7F3F0FB17F3F43EC7F3F0000803F6B
:101AD80043EC7F3F0FB17F3F6D4E7F3F6DC47E3F2C
:101AE80024137E3FAC3A7D3F283B7C3FBE147B3FAE
:101AF8009DC7793FF853783F07BA763F0BFA743F92
:101B08004714733F0809713F9ED86E3F5E836C3F50
:101B1800A7096A3FD86B673F59AA643F98C5613FD8
:101B280005BE5E3F1A945B3F5348583F31DB543F34
:101B38003D4D513F029F4D3F12D1493F03E4453F80
:101B480070D8413FF9AE3D3F4268393FF304353F15
:101B5800BB85303F4AEB2B3F5636273F9967223FDC
:101B6800D17F1D3FC07F183F2A68133FDA390E3FE7
:101B78009BF5083F3D9C033F275DFC3EEA5AF13E3A
:101B88007533E63E80E8DA3ECA7BCF3E15EFC33EAA
:101B98002A44B83ED47CAC3EE59AA03E31A0943E9F
:101BA800938E883ECCCF783E135C603EC2C5473EDC
:101BB800A2102F3E8340163E73B2FA3D36BDC83D93
:101BC80005A9963D30FB483DB00AC93C0BA80C2539
:101BD800B00AC9BC30FB48BD05A996BD36BDC8BD15
:101BE80073B2FABD834016BEA2102FBEC2C547BE4F
:101BF800135C60BECCCF78BE938E88BE31A094BEF5
:101C0800E59AA0BED47CACBE2A44B8BE15EFC3BECC
:101C1800CA7BCFBE80E8DABE7533E6BEEA5AF1BEAB
:101C2800275DFCBE3D9C03BF9BF508BFDA390EBF9C
:101C38002A6813BFC07F18BFD17F1DBF996722BF15
:101C4800563627BF4AEB2BBFBB8530BFF30435BFE1
:101C5800426839BFF9AE3DBF70D841BF03E445BF04
:101C680012D149BF029F4DBF3D4D51BF31DB54BF1B
:101C7800534858BF1A945BBF05BE5EBF98C561BF85
:101C880059AA64BFD86B67BFA7096ABF5E836CBFD8
:101C98009ED86EBF080971BF471473BF0BFA74BF93
:101CA80007BA76BFF85378BF9DC779BFBE147BBF0C
:101CB800283B7CBFAC3A7DBF24137EBF6DC47EBF7A
:101CC8006D4E7FBF0FB17FBF43EC7FBF000080BF69
:101CD80043EC7FBF0FB17FBF6D4E7FBF6DC47EBF2A
:101CE80024137EBFAC3A7DBF283B7CBFBE147BBFAC
:101CF8009DC779BFF85378BF07BA76BF0BFA74BF90
:101D0800471473BF080971BF9ED86EBF5E836CBF4E
:101D1800A7096ABFD86B67BF59AA64BF98C561BFD6
:101D280005BE5EBF1A945BBF534858BF31DB54BF32
:101D38003D4D51BF029F4DBF12D149BF03E445BF7E
:101D480070D841BFF9AE3DBF426839BFF30435BF13
:101D5800BB8530BF4AEB2BBF563627BF996722BFDA
:101D6800D17F1DBFC07F18BF2A6813BFDA390EBFE5
:101D78009BF508BF3D9C03BF275DFCBEEA5AF1BE38
:101D88007533E6BE80E8DABECA7BCFBE15EFC3BEA8
:101D98002A44B8BED47CACBEE59AA0BE31A094BE9D
:101DA800938E88BECCCF78BE135C60BEC2C547BEDA
:101DB800A2102FBE834016BE73B2FABD36BDC8BD91
:101DC80005A996BD30FB48BDB00AC9BC9E3B8DA590
:081DD800B00AC93C180000200C
:081DE00004E4FF7F0100000094
:081DE800A5170008AD01000879
:041DF000890100085D
:101DF40000000000000000000000000001020304D5
:101E04000607080900BD01050000000004030020C6
:101E14006C030020D4030020000000000000000038
:101E240000000000000000000000000000000000AE
:101E3400000000000000000000000000000000009E
:101E4400000000000000000000000000000000008E
:101E5400000000000000000000000000000000007E
:101E6400000000000000000000000000000000006E
:101E7400000000000000000000000000000000005E
:101E8400000000000000000000000000000000004E
:101E9400000000000000000000000000000000003E
:101EA400000000000000000000000000000000002E
:101EB40001000000000000000E33CDAB34126DE6CB
:101EC400ECDE05000B000000000000000000000034
:101ED40000000000000000000000000000000000FE
:101EE40000000000000000000000000000000000EE
:101EF40000000000000000000000000000000000DE
:101F040000000000000000000000000000000000CD
:04223400180000206E
:0422380000000000A2
:040000050800164D8C
:00000001FF
