:020000040800F2
:10000000FFFF00204D1D0008951D0008951D0008EC
:10001000951D0008951D0008951D000800000000B2
:10002000000000000000000000000000951D000816
:10003000951D000800000000951D0008951D000892
:10004000951D0008951D0008951D0008951D0008C8
:10005000951D0008951D0008951D0008951D0008B8
:10006000951D0008951D0008951D0008951D0008A8
:10007000951D0008951D0008951D0008951D000898
:10008000951D0008951D0008951D0008951D000888
:10009000951D0008951D0008951D0008951D000878
:1000A000951D0008951D0008951D0008951D000868
:1000B000D5040008951D0008951D0008951D000831
:1000C000951D0008951D0008951D0008951D000848
:1000D000951D0008810F0008951D0008951D00085A
:1000E000951D0008951D0008951D0008951D000828
:1000F000951D0008951D0008951D0008C108000801
:10010000951D0008951D0008951D0008951D000807
:10011000951D0008951D0008951D0008951D0008F7
:10012000951D0008951D0008951D0008951D0008E7
:10013000951D0008951D0008951D0008951D0008D7
:10014000951D0008951D0008951D0008951D0008C7
:10015000951D0008951D0008951D0008951D0008B7
:10016000951D0008951D0008951D0008951D0008A7
:10017000951D0008951D0008951D0008951D000897
:08018000951D0008951D000803
:1001880010B5054C237833B9044B13B10448AFF3C9
:1001980000800123237010BD4804002000000000E7
:1001A8006C200008084B10B51BB108490848AFF38C
:1001B80000800848036803B910BD074B002BFBD02B
:1001C800BDE81040184700BF000000004C040020A4
:1001D8006C2000084404002000000000154B002B90
:1001E80008BF134B9D46A3F5803A00218B460F4666
:1001F8001348144A121A01F003FE0F4B002B00D0CB
:1002080098470E4B002B00D098470020002104008F
:100218000D000D48002802D00C4801F0B5FE01F091
:10022800C7FD2000290001F01FFC01F0B1FD00BF4F
:1002380000000800000000000000000000000000AE
:10024800480400209C4C0020911F00089D1F0008B6
:10025800014B01221A7070476404002010B584B065
:1002680000F098FB7F4B804A1B88ADF804300023D0
:1002780002938DF80C305369012443F01003536145
:100288000D2102AA23464A208DF8084000F0CAFB37
:1002980018B9764A1368234413609924012302AAE3
:1002A80000214A208DF8084000F0BCFB18B96F4ABD
:1002B8001368013313608024012302AA47214A20CE
:1002C8008DF8084000F0AEFB18B9684A136801338E
:1002D800136001AA012332214A2000F0E3FB18B978
:1002E800624A5368013353609DF80440012364F067
:1002F8007F0402AA32214A208DF8084000F092FBC0
:1003080018B95A4A13680133136001AA012332212C
:100318004A2000F0C7FB18B9544A536801335360A8
:100328009DF80440012304F07F0402AA32214A20E8
:100338008DF8084000F076FB18B94C4A1368013371
:10034800136000242146012302AA4A208DF80840A0
:1003580000F068FB18B9454A136801331360AF24ED
:10036800012302AA04214A208DF8094000F05AFB13
:1003780018B93E4A1368013313607024012302AA96
:100388000D214A208DF8084000F04CFB18B9374A77
:100398001368013313608124012302AA05214A202E
:1003A8008DF8084000F03EFB18B9304A1368013355
:1003B80013600724012302AA06214A208DF8084069
:1003C80000F030FB18B9294A136801331360002480
:1003D800012302AA0A214A208DF8084000F022FBD6
:1003E80018B9224A1368013313600024012302AAB2
:1003F80027214A208DF8084000F014FB18B91B4A41
:100408001368013313600A24022302AA9A214A209E
:100418008DF808408DF8094000F004FB18B9134A1C
:100428001368013313600F24012302AA1F214A20F5
:100438008DF8084000F0F6FA18B90C4A1368013331
:1004480013609E2402AA012302214A208DF8084045
:1004580000F0E8FA18B9054A13680133136004B0CC
:1004680010BD00BF88200008000C0240744C00201A
:100478000D490A6C4FF0804342F001024FF47A5064
:100488000A6418859A8992B242F0010230219A8151
:10049800D9621A8892B242F0810201211A801C2086
:1004A800998200F009BC00BF00380240014B18686F
:1004B800704700BF7C4C0020034A1368C01802D064
:1004C80013688342FCD370477C4C002008B5FFF7C3
:1004D800BFFE4FF0804300221A8208BD294B2A48EC
:1004E8001A68002142F001021A6099601A6822F025
:1004F800847222F480321A6058601A6822F48022CA
:100508001A60D9601A6842F480321A601A68920335
:1005180007D41A464FF4A0631168880301D4013B3D
:10052800FAD1184B194A5A601A6C194942F080528C
:100538001A640A6822F480420A609A689A609A6883
:100548009A609A6842F480529A601A6842F08072FF
:100558001A601A4611680B4B8901FBD50D4A40F207
:10056800027111609A6822F003029A609A6842F058
:1005780002029A601A46936803F00C03082BFAD11A
:10058800704700BF0038024010300024085441076B
:1005980000700040003C0240034AD2F8883043F41F
:1005A8007003C2F88830704700ED00E0074A084938
:1005B800936823F400039360C2F88410136843F02F
:1005C8008063136013681B01FCD570470038024034
:1005D80000300050F0B5DFF868E0184CDEF830C0A5
:1005E80054F820709DF814609DF8185004EB8004AE
:1005F8004CEA07076069CEF8307003244F00D0F842
:1006080000E0BC40E4430EEA040EBA404EEA02029F
:10061800026042684FF0010E0EFA01FE8B4022EA9A
:100628000E02134343608368BE4023401E43866026
:10063800C368BD401C402C43C460F0BD8C2000083A
:100648000038024070B40F4B0F4D53F820402E6B0A
:1006580003EB80033443072958692C630DD8036AD8
:1006680000F1200489000F20884002FA01F123EAF2
:1006780000021143216070BC7047083900F124045E
:10068800436AEFE78C20000800380240044B03EB74
:1006980080008A40406943691A434261704700BF3D
:1006A8008C200008064B03EB800001234269126985
:1006B80003FA01F1114214BF18460020704700BF29
:1006C8008C2000080549064A0B6B43F008030B63AE
:1006D800136843F0AA431360704700BF0038024014
:1006E800000C024030B40F4C656925F47045656113
:1006F80018B1606940F48050606121B109484169CE
:1007080041F40051416122B106494A6942F48042EC
:100718004A6123B1034A536943F40043536130BC2F
:10072800704700BF000C0240024A536923F470432B
:1007380053617047000C024070B582B00025022456
:100748002C4E01942B46009401220421032035608D
:100758007560B560F5603561FFF73CFF264B6FF0BB
:1007680010025A6120462B468DE8300022460721A8
:10077800FFF730FF8DE830002B46224620460A213D
:10078800FFF728FF8DE830002B46224620460C2133
:10079800FFF720FF2B468DE830002246284604212B
:1007A800FFF718FF284606220421FFF74BFF2046D3
:1007B80006220721FFF746FF204606220A21FFF7F7
:1007C80041FF204606220C21FFF73CFF0B490C4A4B
:1007D8000B6C40F6086443F4004340F206200B64B7
:1007E8009483108493889BB243F08003938002B073
:1007F80070BD00BF804C0020000C02400038024051
:10080800003C0040174B70B5174C00255D601D601B
:10081800236823F0010386B02360236813F00103E3
:10082800FBD188B181B10D46104900910446104EA4
:10083800019207206946029605930394049500F0F7
:10084800E7F92F2000F038FA0A49074A8B889BB24B
:1008580043F002038B80136843F00103136006B072
:1008680070BD00BF00600240B8600240542D060011
:100878000C3C0040003C0040094B0A4A00215960EA
:100888001960136823F00103136013680549DB0737
:10089800FBD448600B6843F001030B60704700BF4E
:1008A80000600240B860024008B5072000F0CCF9AB
:1008B800003018BF012008BD0F4B5A680F4B1001BC
:1008C80002F0646102D5186801301860900102D501
:1008D800586801305860500102D598680130986016
:1008E800520202D5DA680132DA60034AD1601A6925
:1008F80001321A61704700BF00600240804C00203E
:10090800214A224B70B500261E70136C204C43F40C
:100918000013136423886FEA434382B06FEA53439A
:1009280002259BB223802A4633460195009506216D
:100938000120FFF74FFE33462A460195009509210D
:100948000120FFF747FE042206210120FFF77AFE67
:10095800042209210120FFF775FE1123238423882F
:10096800C3F30E03238023889BB243F4806343F0D0
:10097800010348F2080010214FF480422380A0832D
:10098800A180228102B070BD00380240944C002042
:1009980000540040204A214B70B500261E70136C8D
:1009A8001F4C43F40013136423886FEA43436FEA30
:1009B800534382B002259AB20123228018462A4660
:1009C8008DE860000621FFF705FE012318462A4638
:1009D8008DE860000921FFF7FDFD042206210120B2
:1009E800FFF730FE042209210120FFF72BFE112317
:1009F80023842388C3F30E03238023889BB243F008
:100A0800010348F28000102144F24A022380A083A7
:100A1800A180228102B070BD00380240944C0020B1
:100A280000540040002A37D0F0B41C4F3C78002C0A
:100A38002FD11B4E0124358B3C703488A4B244F46A
:100A480080743480B58A164CED07FBD540002082AF
:100A58002546AE8A124CB007FBD589B2208B21827D
:100A6800A18A0F4D0906FBD523B113782B82AB8AD7
:100A78001A06FCD50A498B8A094A5B07FBD51388F5
:100A88009BB243F400730021138001203970F0BC3D
:100A980070470020F0BC704710467047944C002007
:100AA80000540040002A00F09680F0B54B4C2578A1
:100AB800002D40F08E804A4D02262F8B26702E88FE
:100AC800B6B246F480762E80AE46BEF81460444D29
:100AD800F707FAD54700B8B228822846868A404DDB
:100AE800B607FBD589B2288B29824AF2010101E0B9
:100AF80001396ED0A88A3A4E0006F9D5318889B2F4
:100B080041F480713180B08A3549C007FBD547F080
:100B180001070F82888A8607FCD5002B49D0304808
:100B2800032B06460ED9018B818A4D07FCD5013B64
:100B3800DBB2318A1170032B02F101051AD0032BA5
:100B48002A46F0D8154615D0012BF8D124490B8830
:100B580023F480631B041B0C0B800B8B0B889BB24C
:100B680043F400730B808B8A1D485B06FBD5038A10
:100B780013701EE01A498A8A194B5007FBD51A8848
:100B880022F480621204120C1A801A8A2A701A46F9
:100B9800918A134B4906FBD51A8A6A701A8892B251
:100BA80042F400721A809A8A0D495206FBD50B8AC4
:100BB800AB700B490B880A4A03F400739BB2002BF5
:100BC800F8D1118889B241F4806111800120237025
:100BD800F0BD0020F0BD0020704700BF944C0020FD
:100BE80000540040054A938A128B9BB243EA0243A1
:100BF80030EA03030CBF0120002070470054004076
:100C0800024A136B43F40013136370470038024021
:100C180001380C4B53F8203000221A608A689A6019
:100C28004A685A600A681A601A6822F400221A6030
:100C38000A691A611A6842F400221A60CA68DA60FE
:100C4800704700BFB42000080138034B53F8203028
:100C58001868C0F3C0407047B420000830B583B0AE
:100C680000248DF805408DF806408DF80740FFF701
:100C780047FE9DF806309DF8055021460DF1050206
:100C880063F01F0445F0100501231E208DF8055060
:100C98008DF80640FFF7C6FE012319460DF106023E
:100CA8001E20FFF7BFFE01230DF1070202211E20BF
:100CB800FFF7B8FE03B030BD00280346B8BF00F107
:100CC8001F035B11A0EB43100122034902FA00F055
:100CD80041F82300704700BF00E100E00028034608
:100CE800B8BF00F11F035B11A0EB431001222033B2
:100CF800024902FA00F041F82300704700E100E0E1
:100D0800102817D80B0615D4130613D410B500F005
:100D18000F0382B00C4663F06F0301A803218DF81E
:100D280004308DF805408DF8062000F017F90120F1
:100D380002B010BD00207047102817D80B0615D434
:100D4800130613D410B500F00F0382B00C4663F0FD
:100D58007F0301A803218DF804308DF805408DF834
:100D6800062000F0FBF8012002B010BD00207047FB
:100D7800102817D80B0615D4130613D410B500F095
:100D88000F0382B00C4663F05F0301A803218DF8BE
:100D980004308DF805408DF8062000F0DFF80120BA
:100DA80002B010BD00207047102817D80B0615D4C4
:100DB800130613D410B500F00F0382B00C4663F08D
:100DC8004F0301A803218DF804308DF805408DF8F4
:100DD800062000F0C3F8012002B010BD00207047C3
:100DE800102814D80B0612D400B500F00F0383B0F6
:100DF8000A4663F03F0301A802218DF804308DF8FC
:100E0800052000F0ABF8012003B05DF804FB0020DA
:100E1800704700BF102814D80B0612D400B500F094
:100E28000F0383B00A4663F02F0301A802218DF84F
:100E380004308DF8052000F091F8012003B05DF82A
:100E480004FB0020704700BF102817D80B0615D4E4
:100E5800130613D410B500F00F0382B00C4663F0EC
:100E68001F0301A803218DF804308DF805408DF883
:100E7800062000F073F8012002B010BD0020704772
:100E8800304A314B2DE9F041002414601A6B2F4D84
:100E980042F003021A635A6C42F010025A641A6C48
:100EA80042F4003282B01A648046072220460221AA
:100EB800FFF7C8FB07220120074602261146FFF765
:100EC800C1FB234601973846009632463146FFF764
:100ED80081FB8DE8C0003246384623460721FFF7DC
:100EE80079FB1B4B1B491C4E2C824FEA8802B1FB35
:100EF800F2F2A3FB02177F09642107FB11221201FA
:100F08003232A3FB0223C3F3431343EA07139BB212
:100F18002421082234822520A981B281AC82B4829E
:100F28002B813381FFF7C8FEAB899BB243F4005392
:100F3800AB81B3899BB243F40053B38102B0BDE8DF
:100F4800F08100BF984C002000380240001001409A
:100F58001F85EB510084D7170044004049B1054A6A
:100F6800014410F8013B938013885B06FCD5884246
:100F7800F7D170470044004010B5094C23889B0600
:100F88000DD5A0880023C0B298472388054A23F0CE
:100F980020031B041B0C238013680133136010BD4E
:100FA80000100140984C00204049414BD1F888205E
:100FB800404842F47002C1F888201A68002142F0C3
:100FC80001021A6099601A6822F0847222F4803251
:100FD8001A6058601A6882B022F480221A60D960B8
:100FE800009101911A6842F480321A601A4603E0AF
:100FF800009BB3F5A06F09D0136803F40033019385
:10100800009B01330093019B002BF1D0284B1B68F8
:1010180013F4003318BF01230193019B012B40D027
:10102800234A2549136C43F0805313640B6823F457
:1010380080430B609368936093689360936843F46C
:1010480080539360136843F0807313601168184BE2
:101058008901FBD5194A40F2027111609A6822F0A1
:1010680003029A609A6842F002029A6019468B68F5
:101078000F4A03F00C03082BF9D19368104923F4A5
:1010880000039360C2F88410136843F08063136010
:1010980013681B01FCD5054B4FF000629A6002B043
:1010A8007047034B074A5A60BAE700BF00ED00E0FB
:1010B800003802401030002400700040003C02401C
:1010C80080400030085441071848836803F00C0337
:1010D800042B28D0082B09D0154B144A15499268BF
:1010E800C2F303128A5CD3400B61704743684168BE
:1010F80013F4800F436818BF0F4801F03F020CBF7C
:101108000B49B0FBF2F1C3F3881308BFB1FBF2F14E
:1011180001FB03F2054B5B68C3F3014301335B003A
:10112800B2FBF3F3D9E7044BD7E700BF003802401E
:101138000024F4000400002000127A00F4240008BF
:101148000000002044040020480400209C4C00209B
:10115800DFED336AB5EEC00A60EE266AF1EE10FAEA
:10116800BDEEE67A56D4B8EEC77ADFED2E7A9FED5B
:101178002E4ADFED2E5A2E4A76EEC76AB6EE005A90
:1011880026EEA77AF7EE006ABCEEC76AF8EEC67AD2
:1011980016EE103A77EE677AB3F5807F67EEA74AC6
:1011A80027EE853A24EE855AF1EE643AB0EE457A98
:1011B800A7EEC47AA8BF4FF4807323EAE37327EE3F
:1011C800A56AB0EE630AA4EE830A02EB8303B0EECD
:1011D800474A36EEC37AF0EE466AD4EE866A77EE70
:1011E800857A37EE007AD3ED014A93ED030A93ED41
:1011F800005AD3ED025AE3EE837AA3EE864A27EE2D
:10120800247A26EE800AA5EE047AA5EEA70A37EE20
:10121800000A704717EE103A013B07EE103AA2E7B2
:1012280083F9223E00008043ABAAAA3EABAA2A3E1D
:10123800D020000881F0004102E000BF83F00043A5
:1012480030B54FEA41044FEA430594EA050F08BF59
:1012580090EA020F1FBF54EA000C55EA020C7FEA1D
:10126800645C7FEA655C00F0E2804FEA5454D4EB9A
:101278005555B8BF6D420CDD2C4480EA020281EA64
:10128800030382EA000083EA010180EA020281EA9C
:101298000303362D88BF30BD11F0004F4FEA0131EE
:1012A8004FF4801C4CEA113102D0404261EB4101FD
:1012B80013F0004F4FEA03334CEA133302D0524283
:1012C80063EB430394EA050F00F0A780A4F101043F
:1012D800D5F1200E0DDB02FA0EFC22FA05F2801879
:1012E80041F1000103FA0EF2801843FA05F359415F
:1012F8000EE0A5F120050EF1200E012A03FA0EFCDE
:1013080028BF4CF0020C43FA05F3C01851EBE37107
:1013180001F0004507D54FF0000EDCF1000C7EEB24
:1013280000006EEB0101B1F5801F1BD3B1F5001F62
:101338000CD349085FEA30004FEA3C0C04F1010481
:101348004FEA445212F5800F80F09A80BCF1004FAA
:1013580008BF5FEA500C50F1000041EB045141EA2C
:10136800050130BD5FEA4C0C404141EB010111F42D
:10137800801FA4F10104E9D191F0000F04BF0146D8
:101388000020B1FA81F308BF2033A3F10B03B3F1B6
:1013980020020CDA0C3208DD02F1140CC2F10C0246
:1013A80001FA0CF021FA02F10CE002F11402D8BFA4
:1013B800C2F1200C01FA02F120FA0CFCDCBF41EA70
:1013C8000C019040E41AA2BF01EB0451294330BD3F
:1013D8006FEA04041F3C1CDA0C340EDC04F114041C
:1013E800C4F1200220FA04F001FA02F340EA0300F3
:1013F80021FA04F345EA030130BDC4F10C04C4F139
:10140800200220FA02F001FA04F340EA0300294618
:1014180030BD21FA04F0294630BD94F0000F83F462
:10142800801306BF81F480110134013D4EE77FEA45
:10143800645C18BF7FEA655C29D094EA050F08BF91
:1014480090EA020F05D054EA000C04BF1946104672
:1014580030BD91EA030F1EBF0021002030BD5FEAB6
:10146800545C05D14000494128BF41F0004130BDDE
:1014780014F580043CBF01F5801130BD01F0004532
:1014880045F0FE4141F470014FF0000030BD7FEAA5
:10149800645C1ABF194610467FEA655C1CBF0B46A0
:1014A800024650EA013406BF52EA033591EA030FB7
:1014B80041F4002130BD00BF90F0000F04BF0021AF
:1014C800704730B54FF4806404F132044FF00005E2
:1014D8004FF0000150E700BF90F0000F04BF00215B
:1014E800704730B54FF4806404F1320410F00045C1
:1014F80048BF40424FF000013EE700BF42004FEABC
:10150800E2014FEA31014FEA02701FBF12F07F4338
:1015180093F07F4F81F06051704792F0000F14BF35
:1015280093F07F4F704730B54FF4607401F0004579
:1015380021F0004120E700BF50EA010208BF7047D0
:1015480030B54FF000050AE050EA010208BF7047C5
:1015580030B511F0004502D5404261EB41014FF42E
:10156800806404F132045FEA915C3FF4DCAE4FF032
:1015780003025FEADC0C18BF03325FEADC0C18BF19
:10158800033202EBDC02C2F1200300FA03FC20FA6A
:1015980002F001FA03FE40EA0E0021FA02F11444B7
:1015A800C1E600BF70B54FF0FF0C4CF4E06C1CEACC
:1015B80011541DBF1CEA135594EA0C0F95EA0C0F41
:1015C80000F0DEF82C4481EA030621EA4C5123EAB4
:1015D8004C5350EA013518BF52EA033541F48011E3
:1015E80043F4801338D0A0FB02CE4FF00005E1FB96
:1015F80002E506F00042E0FB03E54FF00006E1FBE0
:1016080003569CF0000F18BF4EF0010EA4F1FF0422
:10161800B6F5007F64F5407404D25FEA4E0E6D4162
:1016280046EB060642EAC62141EA55514FEAC52073
:1016380040EA5E504FEACE2EB4F1FD0C88BFBCF5EF
:10164800E06F1ED8BEF1004F08BF5FEA500E50F1A0
:10165800000041EB045170BD06F0004646EA010166
:1016680040EA020081EA0301B4EB5C04C2BFD4EB98
:101678000C0541EA045170BD41F480114FF0000E91
:10168800013C00F3AB8014F1360FDEBF002001F0FF
:10169800004170BDC4F10004203C35DA0C341BDC79
:1016A80004F11404C4F1200500FA05F320FA04F04B
:1016B80001FA05F240EA020001F0004221F000417F
:1016C80010EBD37021FA04F642EB06015EEA430EF2
:1016D80008BF20EAD37070BDC4F10C04C4F1200522
:1016E80000FA04F320FA05F001FA04F240EA0200D5
:1016F80001F0004110EBD37041F100015EEA430EA6
:1017080008BF20EAD37070BDC4F1200500FA05F2C5
:101718004EEA020E20FA04F301FA05F243EA020344
:1017280021FA04F001F0004121FA04F220EA020053
:1017380000EBD3705EEA430E08BF20EAD37070BD99
:1017480094F0000F0FD101F00046400041EB010179
:1017580011F4801F08BF013CF7D041EA060195F05B
:10176800000F18BF704703F00046520043EB030315
:1017780013F4801F08BF013DF7D043EA0603704702
:1017880094EA0C0F0CEA135518BF95EA0C0F0CD00D
:1017980050EA410618BF52EA4306D1D181EA030153
:1017A80001F000414FF0000070BD50EA410606BF4D
:1017B8001046194652EA430619D094EA0C0F02D192
:1017C80050EA013613D195EA0C0F05D152EA0336D7
:1017D8001CBF104619460AD181EA030101F00041F5
:1017E80041F0FE4141F470014FF0000070BD41F03E
:1017F800FE4141F4780170BD70B54FF0FF0C4CF418
:10180800E06C1CEA11541DBF1CEA135594EA0C0F36
:1018180095EA0C0F00F0A7F8A4EB050481EA030E83
:1018280052EA03354FEA013100F088804FEA03336A
:101838004FF0805545EA131343EA12634FEA022238
:1018480045EA111545EA10654FEA00260EF00041F9
:101858009D4208BF964244F1FD0404F5407402D24B
:101868005B084FEA3202B61A65EB03055B084FEADC
:1018780032024FF480104FF4002CB6EB020E75EBD9
:10188800030E22BFB61A754640EA0C005B084FEA01
:101898003202B6EB020E75EB030E22BFB61A75467E
:1018A80040EA5C005B084FEA3202B6EB020E75EBC9
:1018B800030E22BFB61A754640EA9C005B084FEA41
:1018C8003202B6EB020E75EB030E22BFB61A75464E
:1018D80040EADC0055EA060E18D04FEA051545EA3D
:1018E80016754FEA06164FEAC30343EA52734FEAE6
:1018F800C2025FEA1C1CC0D111F4801F0BD141EA5F
:1019080000014FF000004FF0004CB6E711F4801FC3
:1019180004BF01430020B4F1FD0C88BFBCF5E06FA3
:101928003FF6AFAEB5EB030C04BFB6EB020C5FEAB3
:10193800500C50F1000041EB045170BD0EF0004E08
:101948004EEA113114EB5C04C2BFD4EB0C0541EA3A
:10195800045170BD41F480114FF0000E013C90E637
:1019680045EA060E8DE60CEA135594EA0C0F08BFFB
:1019780095EA0C0F3FF43BAF94EA0C0F0AD150EAFA
:1019880001347FF434AF95EA0C0F7FF425AF10468D
:1019980019462CE795EA0C0F06D152EA03353FF4B5
:1019A800FDAE1046194622E750EA410618BF52EA32
:1019B80043067FF4C5AE50EA41047FF40DAF52EA06
:1019C80043057FF4EBAE12E74FEA4102B2F1E04380
:1019D80024BFB3F5001CDCF1FE5C0DD901F0004C0E
:1019E8004FEAC0024CEA5070B2F1004F40EB83005E
:1019F80008BF20F00100704711F0804F21D113F18A
:101A08003872BCBF01F00040704741F480114FEAC2
:101A18005252C2F11802C2F1200C10FA0CF320FA4B
:101A280002F018BF40F001004FEAC1234FEAD32368
:101A380003FA0CFC40EA0C0023FA02F34FEA4303D2
:101A4800CCE77FEA625307D150EA01331EBF4FF05B
:101A5800FE4040F44000704701F0004040F0FE4076
:101A680040F40000704700BF2DE9F0432DED028BD4
:101A7800A74DA84F9FEDA88ADFEDA88A83B0002460
:101A880085F80448FEF788FDFEF728FDFEF78EFD71
:101A9800FEF718FEFEF750FEFEF7E0FBFFF7B0F882
:101AA800FFF7DCF847F61220FFF7EAF9FEF7E0FC4B
:101AB8002346224621462046A5F80648C5F8084888
:101AC8002C70FEF70FFE05F60C042646B0EE480A09
:101AD800FFF73EFBA6EC010ABE4238EE288AF5D194
:101AE8008F49B5F806389FED8F6ADFED8F6A01F5EB
:101AF800806004EB830292ED007A07EE903A27EEBD
:101B0800067AF8EEE77ABDEEC77A77EEA67A17EE90
:101B1800102AFCEEE77A21F8022F17EE903A81425C
:101B2800C3F30B03E5D1814A9FED7E6ADFED7E6A40
:101B380002F5806104EB830090ED007A744E07EEA5
:101B4800903A27EE067AF8EEE77ABDEEC77A77EE96
:101B5800A67A17EE103AFCEEE77A22F8023F17EE63
:101B6800903A8A42C3F30B03E4D14FF4007206F2B1
:101B78000441301DA6F80638FEF744FEDFF8C081A0
:101B8800DFED688A06F2044798F82C04FFF7A4FCF6
:101B98000022674BFFF706FD0022664BFFF750FB5C
:101BA800FFF712FF08EE100AFEF77EFEDFED627AFD
:101BB800624A85F80408B5F80638012814BF384683
:101BC800104628EE278A811E00F2FE3004EB8302BD
:101BD80092ED007A07EE903A27EE287AF8EEE77A47
:101BE800BDEEC77A77EE887A17EE102AFCEEE77A10
:101BF80021F8022F17EE903A8142C3F30B03E5D187
:101C0800A6F80638FEF750FE95F804388342F9D056
:101C1800FEF74AFE494A86F80408B5F8063801284E
:101C280014BF38461046811E00F2FE3004EB8302D2
:101C380092ED007A07EE903A27EE287AF8EEE77AE6
:101C4800BDEEC77A77EE887A17EE102AFCEEE77AAF
:101C580021F8022F17EE903A8142C3F30B03E5D126
:101C680096F80090A6F80638B9F1010F05D0D5F816
:101C780008380133C5F8083886E74FF0020E6A467F
:101C8800032106231E2086F800E0FEF70BFF9DF8CF
:101C9800012088F82C24802A294916D982F080024C
:101CA80000233F2A81F82C24337021D9A2F1400364
:101CB8003F2B16D982F080023F2A1FD901231A46EA
:101CC80019461846FEF70EFDD1E713061DD482F01B
:101CD800800281F82C2400232B70A2F140033F2BB3
:101CE800E8D8002301211A460846FEF7FBFCBEE7A8
:101CF80048461A461946FEF7F5FCB8E70122114690
:101D080010460023FEF7EEFCB1E78022E3E700BFB0
:101D180064040020704C002000000000DB0FC93A6A
:101D28006604002000007A44C92F16426608002085
:101D380000002440000059403EC3AE3D6804002026
:101D480044480020002103E00B4B5B58435004310A
:101D58000A480B4B42189A42F6D30A4A02E000237B
:101D680042F8043B084B9A42F9D3FFF71DF900F0FB
:101D78001FF8FFF779FE7047F424000800000020E0
:101D880044040020480400209C4C0020FEE700008A
:101D980008B50021044600F08BF8044B1868C36BA3
:101DA80003B19847204600F05BF900BFDC24000827
:101DB80070B50F4E0F4D761BB61018BF002405D016
:101DC800013455F8043B9847A642F9D10A4E0B4D09
:101DD800761B00F049F9B61018BF002406D001346C
:101DE80055F8043B9847A642F9D170BD70BD00BFB5
:101DF800E8240008E8240008F0240008E824000883
:101E080070B4840746D0541E002A41D0CDB2034690
:101E180002E0621EE4B3144603F8015B9A07F8D1A6
:101E2800032C2ED9CDB245EA05250F2C45EA0545E8
:101E380019D903F110022646103E0F2E42F8105C05
:101E480042F80C5C42F8085C42F8045C02F11002AB
:101E5800F2D8A4F1100222F00F0204F00F0410329D
:101E6800032C13440DD91E462246043A032A46F889
:101E7800045BFAD8221F22F003020432134404F050
:101E880003042CB1C9B21C4403F8011BA342FBD1C3
:101E980070BC704714460346C2E700BF024B13B13B
:101EA800024800F071B87047000000009D1F00084C
:101EB8002DE9F04F324B85B01B68029303F5A473EC
:101EC80001900E460393029BD3F848713FB3DDF8A7
:101ED8000CA04FF00109D3467C68651E0ED401346E
:101EE80007EB84044FF00008E6B1D4F800319E42B5
:101EF80018D0013D6B1CA4F10404F5D1214B73B13A
:101F08007B68002B36D13B68002B34D03846CBF8A1
:101F18000030AFF30080DBF80070002FDCD105B093
:101F2800BDE8F08F7B682268013BAB420CBF7D6047
:101F3800C4F80080002ADCD0D7F88811D7F804A0AC
:101F480009FA05F30B420FD0D7F88C110B420DD1CB
:101F5800D4F88010019890477B685345B3D1DBF8DB
:101F68000030BB42C5D0AEE79047F5E7D4F8800013
:101F78009047F1E73B68BB461F46002FACD1CEE740
:101F8800DC24000800000000002301461A46184619
:101F980000F014B838B5074D074C2C1BA41005D019
:101FA800013C55F8043D9847002CF9D1BDE838406C
:101FB80000F060B8F4240008F02400082DE9F04788
:101FC800254C2568D5F848410646884692469946E4
:101FD800C4B360681F2817DC431C76B104EB800586
:101FE8000122C5F888A0D4F8881182401143022E36
:101FF800C4F88811C5F808911ED00230636044F80F
:1020080020800020BDE8F087144B03B34FF4C8705C
:10201800AFF300800446D0B1D5F84831002780E8F6
:102028008800C5F8484138460123C4F88871C4F8C7
:102038008C71002EE1D0D1E7D4F88C110A43C4F892
:102048008C21DAE705F5A674C5F84841C1E74FF0D9
:10205800FF30BDE8F08700BFDC2400080000000066
:10206800FEE700BF00000000F8B500BFF8BC08BCE0
:102078009E467047F8B500BFF8BC08BC9E4670473E
:10208800FFFF000001000000020000000400000043
:102098000800000010000000000002400004024098
:1020A80000080240000C0240001002402860024074
:1020B8004060024058600240706002408860024000
:1020C800A0600240B8600240B00AC9BC000000002D
:1020D800B00AC93C30FB483D05A9963D36BDC83D10
:1020E80073B2FA3D8340163EA2102F3EC2C5473E4A
:1020F800135C603ECCCF783E938E883E31A0943EF0
:10210800E59AA03ED47CAC3E2A44B83E15EFC33EC7
:10211800CA7BCF3E80E8DA3E7533E63EEA5AF13EA6
:10212800275DFC3E3D9C033F9BF5083FDA390E3F97
:102138002A68133FC07F183FD17F1D3F9967223F10
:102148005636273F4AEB2B3FBB85303FF304353FDC
:102158004268393FF9AE3D3F70D8413F03E4453FFF
:1021680012D1493F029F4D3F3D4D513F31DB543F16
:102178005348583F1A945B3F05BE5E3F98C5613F80
:1021880059AA643FD86B673FA7096A3F5E836C3FD3
:102198009ED86E3F0809713F4714733F0BFA743F8E
:1021A80007BA763FF853783F9DC7793FBE147B3F07
:1021B800283B7C3FAC3A7D3F24137E3F6DC47E3F75
:1021C8006D4E7F3F0FB17F3F43EC7F3F0000803F64
:1021D80043EC7F3F0FB17F3F6D4E7F3F6DC47E3F25
:1021E80024137E3FAC3A7D3F283B7C3FBE147B3FA7
:1021F8009DC7793FF853783F07BA763F0BFA743F8B
:102208004714733F0809713F9ED86E3F5E836C3F49
:10221800A7096A3FD86B673F59AA643F98C5613FD1
:1022280005BE5E3F1A945B3F5348583F31DB543F2D
:102238003D4D513F029F4D3F12D1493F03E4453F79
:1022480070D8413FF9AE3D3F4268393FF304353F0E
:10225800BB85303F4AEB2B3F5636273F9967223FD5
:10226800D17F1D3FC07F183F2A68133FDA390E3FE0
:102278009BF5083F3D9C033F275DFC3EEA5AF13E33
:102288007533E63E80E8DA3ECA7BCF3E15EFC33EA3
:102298002A44B83ED47CAC3EE59AA03E31A0943E98
:1022A800938E883ECCCF783E135C603EC2C5473ED5
:1022B800A2102F3E8340163E73B2FA3D36BDC83D8C
:1022C80005A9963D30FB483DB00AC93C0BA80C2532
:1022D800B00AC9BC30FB48BD05A996BD36BDC8BD0E
:1022E80073B2FABD834016BEA2102FBEC2C547BE48
:1022F800135C60BECCCF78BE938E88BE31A094BEEE
:10230800E59AA0BED47CACBE2A44B8BE15EFC3BEC5
:10231800CA7BCFBE80E8DABE7533E6BEEA5AF1BEA4
:10232800275DFCBE3D9C03BF9BF508BFDA390EBF95
:102338002A6813BFC07F18BFD17F1DBF996722BF0E
:10234800563627BF4AEB2BBFBB8530BFF30435BFDA
:10235800426839BFF9AE3DBF70D841BF03E445BFFD
:1023680012D149BF029F4DBF3D4D51BF31DB54BF14
:10237800534858BF1A945BBF05BE5EBF98C561BF7E
:1023880059AA64BFD86B67BFA7096ABF5E836CBFD1
:102398009ED86EBF080971BF471473BF0BFA74BF8C
:1023A80007BA76BFF85378BF9DC779BFBE147BBF05
:1023B800283B7CBFAC3A7DBF24137EBF6DC47EBF73
:1023C8006D4E7FBF0FB17FBF43EC7FBF000080BF62
:1023D80043EC7FBF0FB17FBF6D4E7FBF6DC47EBF23
:1023E80024137EBFAC3A7DBF283B7CBFBE147BBFA5
:1023F8009DC779BFF85378BF07BA76BF0BFA74BF89
:10240800471473BF080971BF9ED86EBF5E836CBF47
:10241800A7096ABFD86B67BF59AA64BF98C561BFCF
:1024280005BE5EBF1A945BBF534858BF31DB54BF2B
:102438003D4D51BF029F4DBF12D149BF03E445BF77
:1024480070D841BFF9AE3DBF426839BFF30435BF0C
:10245800BB8530BF4AEB2BBF563627BF996722BFD3
:10246800D17F1DBFC07F18BF2A6813BFDA390EBFDE
:102478009BF508BF3D9C03BF275DFCBEEA5AF1BE31
:102488007533E6BE80E8DABECA7BCFBE15EFC3BEA1
:102498002A44B8BED47CACBEE59AA0BE31A094BE96
:1024A800938E88BECCCF78BE135C60BEC2C547BED3
:1024B800A2102FBE834016BE73B2FABD36BDC8BD8A
:1024C80005A996BD30FB48BDB00AC9BC9E3B8DA589
:0824D800B00AC93C1800002005
:0824E00004DDFF7F0100000094
:0824E800A51E0008AD0100086B
:0424F0008901000856
:1024F40000000000000000000000000001020304CE
:102504000607080900BD01050000000004030020BF
:102514006C030020D4030020000000000000000031
:1025240000000000000000000000000000000000A7
:102534000000000000000000000000000000000097
:102544000000000000000000000000000000000087
:102554000000000000000000000000000000000077
:102564000000000000000000000000000000000067
:102574000000000000000000000000000000000057
:102584000000000000000000000000000000000047
:102594000000000000000000000000000000000037
:1025A4000000000000000000000000000000000027
:1025B40001000000000000000E33CDAB34126DE6C4
:1025C400ECDE05000B00000000000000000000002D
:1025D40000000000000000000000000000000000F7
:1025E40000000000000000000000000000000000E7
:1025F40000000000000000000000000000000000D7
:1026040000000000000000000000000000000000C6
:042934001800002067
:04293800000000009B
:0400000508001D4D85
:00000001FF
